:020000040800F2
:1000000000000110FDCD0208FF34020899B4020877
:10001000B9CE0208B9CE0208B9CE0208000000002D
:10002000000000000000000000000000FD34020895
:10003000FB34020800000000F93402088DD50108E5
:10004000B9CE0208B9CE0208B9CE0208B9CE02086C
:10005000B9CE0208B9CE0208B3B80108BBB801088E
:10006000B9CE0208B9B80108B7B801086915000887
:100070005915000849150008391500082915000808
:100080001515000801150008B9CE0208B9CE0208FE
:10009000B9CE0208B9CE0208B9CE0208B5B8010837
:1000A00071D20108D5D20108B9CE0208FDD20108EB
:1000B000C5D20108B5D20108A5D20108B9CE0208FF
:1000C000B9CE0208B9CE0208B9CE0208B9CE0208EC
:1000D000B9CE020859180008B9CE02084D18000818
:1000E000B1B80108B9CE02083D390208B9CE0208FC
:1000F00091D20108B9CE020881D20108ED1400089E
:10010000B9CE0208B9CE020895D20108B9CE0208CC
:10011000B9CE0208B9CE0208B9CE0208B9CE02089B
:10012000D9140008C5140008B11400089D14000873
:1001300089140008B9CE0208B9CE0208B9CE020867
:10014000B9CE0208B9CE0208B9CE0208712F020852
:1001500075140008611400084B14000841180008C9
:10016000B9CE0208B9CE0208B9CE0208B9CE02084B
:10017000B9CE0208B9CE0208B9CE0208B9CE02083B
:08018000B9CE0208B9CE020855
:1001880010B5027B01681F2A4FF020030ED94C6876
:10019800203A93401C4216D00B4A40680024147041
:1001A800026822F001020260CB6010BD0C68934027
:1001B8001C4208D0044A406800241470026822F0E7
:1001C800010202608B6010BD9AC70020704770471B
:1001D800704710B5154C23889A0B013A022A23D987
:1001E800C3F30D0303EB83035B0007EE903A104A59
:1001F80063889FED107A9FED106AF8EEE77AC824BD
:1002080013FB042367EE877A07EE103AB8EEC77A35
:10021800C7EE066A9FED097A36EE877A08B1C0ED17
:10022800007A09B181ED007A10BD00BF10300020BE
:100238003270FEFF6D79D73D00E0FF443393884369
:100248002DE9F04F654B664EB3F80AC07468B3F8F1
:10025800048087B04FEA0C2A05901889B4EB0A0A83
:100268004FF000024FF0000565EB020BA0FB0A45BA
:1002780000FB0B55E00940EA45604FEA08440719BE
:100288008E46D8884FEAE51141EB0208A0FB0A45E3
:10029800CDE90278B3F8028000FB0B55200A40EA4A
:1002A80005604FEAC83410EB04084FEA252141EBFA
:1002B80002099A89A2FB0A0102FB0B11C20D42EA4C
:1002C800412212F5FA604FEAE15343F10001B0F51B
:1002D800FA6FCDE9000171F10001B4465EDA052438
:1002E800A2FB040104FB031100FB03F402FB01441D
:1002F800DDE90267A0FB020121444D104FEA3004FA
:10030800361B4FEA900444EA817467EB05078D10A9
:10031800B8EB040869EB0509DDE9004531484FF001
:10032800FF31844275EB0101CDE9026723DA40F61B
:10033800AC5012184FF000014B4102FB03F1A2FB35
:10034800022303EB4103D900D000101A41EA52718D
:1003580063EB0101341847EB0105CDE902450B2495
:10036800A2FB040104FB031149104FEA3000B8EB6B
:10037800000869EB01090AFB0BF3DDE90001AAFBA0
:100388000AAB0BEB430B4FEADA7242EA4B02801AD4
:100398004FEAEB7361EB0301CDE90001DCF80810CB
:1003A800A1FB082301FB0933540D5D1544EAC3245E
:1003B800DDE90223A21A65EB03031D46D30B059A58
:1003C80043EA454302B11360BEF1000F02D0009B1F
:1003D800CEF8003007B0BDE8F08F00BF30750020C0
:1003E8001030002024FAFFFF2DE9F74F6A4CDFF8A0
:1003F800ACE123880091DEF80C10B4F90480C3EB5B
:1004080021125B00C3EBE103B4F9021052435943D4
:10041800131308FB03F84FEAA83808EBE12101EBB6
:100428008102B1F5FA3802F180024FEAE1794FEA28
:10043800222349F1FF39B4F908200193A8FB08AB3E
:1004480008FB09F30BEB430BA161D31702FB09F17E
:1004580008FB0311A2FB08230B441F03160347EAFA
:100468001257B4F90A2002FB0BF1D3170AFB031346
:100478000546A2FB0A011944020A42EA01629219DE
:100488004FEA2123E6887B41003243F50043A2FB73
:10049800060106FB03114A10CB1752EA03016FD07D
:1004A800B4F91060B4F90E00F71706FB0BF10AFB5C
:1004B8000711A6FB0AAB8B4400FB09F6C11708FB22
:1004C8000161A0FB08898944DEF810104FEA48460C
:1004D800C1F5801E4FEA494747EAD8371AEB060AA2
:1004E800B4F90C8076464BEB070BF71700264FEA5A
:1004F800CE70F90716EB0A064FEAC80741EA5E0113
:1005080047EB0B0740F6354E861B61EB0707A6FB4A
:100518000E010EFB07112CF081FAB4F916204E13C8
:10052800470B47EAC14702FB06FED31707FB03EE5A
:10053800A2FB07237344564307FB0366A2FB07236A
:100548003344560E46EAC3163218B4F914604FEA1B
:10055800636747EB01037143F71700FB0717A6FB17
:1005680000013944C60C46EA413692194FEAE14780
:10057800B4F912607B41100A40EA03603201121894
:100588000DB1120A2A60009B13B11A46019B136031
:1005980003B0BDE8F08F00BF4C750020103000207C
:1005A80070472DE9F041324E324F7489BB8AB6F953
:1005B8001420B6F902E0B6F90E80B6F920C01B1B6C
:1005C80034895C43E313B6F912401A44E4020A255D
:1005D80094FBF2F41C44B6F90430F4616543A4F5C5
:1005E8007A6404FB04F204FB0EFE5C43B6F90C309B
:1005F800121302FB08F85A4312144FEAEE2E02EBCC
:1006080064340EEBE828B6F900E0F388BE690234DA
:10061800A41008EB8E0804F5004408FA0CF86343AC
:100628004CF2503208F10208DC0BA6EBA80642FA9D
:100638000CF3734353BF5B00B3FBF4F35B00B3FBF2
:10064800F4F31A1202FB02F440F6DE3262430A4C5B
:1006580012145C4302EB2442083502F6CF622D11D6
:1006680003EB221300B1036001B10D60BDE8F08116
:10067800E87400201030002043E3FFFF4FF480535C
:10068800838270474FF48053838270474FF48053BE
:1006980083827047BFF34F8F0549064BCA6802F43F
:1006A800E0621343CB60BFF34F8F00BFFDE700BF8D
:1006B80000ED00E00400FA05036B10B50446D3B959
:1006C800836D99891A88890692B214D5900612D535
:1006D800E26A6AB99B88E2696169DBB28B54E369B3
:1006E800E1680133B3FBF1F201FB1233E36102E08D
:1006F800988880B29047626BA36DCAB999891A88A5
:10070800090692B214D5100612D5A26A616A8A4205
:1007180004D1DA6822F08002DA6009E0A169206970
:10072800895C99800132B2FBF0F100FB1122A262D0
:10073800998A1A88C90592B204D5D20702D54FF60C
:10074800F7721A8010BD426A806A131A58425841DB
:1007580070474171704743799B070AD5436A82699C
:10076800D154436A01690133B3FBF1F201FB12333F
:1007780043627047437913F0020308D00369426A61
:10078800806A013B101A1840C0B2181A7047184600
:100798007047437913F001031FBFC369026AC06839
:1007A8009B1A1ABF00F1FF3018401846704710B561
:1007B800437913F0010301460ED0FFF7EAFF60B159
:1007C8000B6A4A69CC68D05C0133B3FBF4F204FBD2
:1007D8001233C0B20B6210BD184610BD90F84332F8
:1007E80030B53BB990F8411290F842320124DAB2A0
:1007F800914200D830BDB0F8485204FA03F22A43B7
:10080800A0F848220133F2E790F83720034602F0B7
:10081800FF0012B1002283F83720704737B504462D
:10082800056C90F84C106B4606221830A847A8B102
:100838009DF800209DF8013043EA022323859DF8A6
:1008480002209DF8033043EA022363859DF80420C3
:100858009DF8053043EA0223A385012003B030BD8B
:1008680037B50446056A6B4606223B210830A8477F
:10087800A8B19DF800209DF8013043EA0223E382E5
:100888009DF802209DF8033043EA022323839DF854
:1008980004209DF8053043EA02236383012003B056
:1008A80030BD0346012283F8232053F8043C143852
:1008B80003B11847704738B5054603200C461BF0AE
:1008C800E9F907EE900AB8EE677ADFED0A7A27EEC3
:1008D800277A5DB1F8EE047AF0EE006AE7EE267A40
:1008E8009FED057A67EE877AC5ED007A0CB1034B68
:1008F800236038BD6740533A00007A44331390436D
:10090800F8B504460D4D806816460F461AF09AFE53
:10091800012000211CF01AFE394628461BF088F8F1
:10092800314628461BF084F8A0681AF090FE012092
:1009380000211CF00BFE0120F8BD00BF0030014073
:10094800DEE78379406BDB0744BFB1FA81F14909DF
:1009580009B11AF07CBE1AF075BE13B50021044621
:1009680028F040FD14201CF002FE0F21204628F03C
:1009780039FD0A201CF0FBFD01AB032210212046A3
:1009880028F04AFD0A201CF0F2FD9DF904209FED95
:10099800285ADFED285A284B06EE902AF8EEE66A28
:1009A800F7EE007A76EEC56A9DF90520B0EE677A13
:1009B800A6EEA57A0021204606EE902AB3EE0E6A2E
:1009C800F8EEE66A27EE067A76EEC56A83ED007AD7
:1009D800B0EE677AA6EEA57A9DF9062027EE067A8C
:1009E80083ED017A07EE102AB8EEC77A37EE457A1A
:1009F800E7EE257A67EE867AC3ED027A28F0F2FCF4
:100A08000A201CF0B4FD0DF1030301220221204647
:100A180028F002FD0DF1030301220921204628F0E8
:100A2800FBFC0221204628F0DDFC012002B010BDAD
:100A3800000000430000803B000000202DE9F04149
:100A48000C4D04468846806817461E461AF0FAFD83
:100A580048F0800128461AF0EBFF3B460022314659
:100A680028461AF0B7FFA0681AF0F1FD0120BDE88A
:100A7800F08100BF00300140E0E710B5054C207858
:100A880038B11CF01FFDA368C01AC0F5FA5020EA5F
:100A9800E07010BDD8990020F8B504460E46FFF75F
:100AA800ECFF002802DDC1171CF050FD0A4B20693D
:100AB8005F7800251D701AF0C5FDC92107481AF096
:100AC800B7FF3B462A46314604481AF083FF20699F
:100AD8001AF0BDFD0120F8BDD89900200030014072
:100AE8002DE9F7434B4C2368C0F8163000F1160681
:100AF800A388B380A4F11C0807464FF00109002021
:100B0800454698F82230012B5DD051D3022B78D07E
:100B180000286DD09DF8062012F0030268D19DF8D8
:100B280001109DF800309DF803E085F8222043EA83
:100B380001231BB2384907EE903A91ED007AF8EE9E
:100B4800E77A67EE877A91ED017AFDEEE77A17EE9C
:100B5800903AFB829DF8023043EA0E231BB207EE5F
:100B6800903AF8EEE77A9DF805E067EE877A91ED1E
:100B7800027AFDEEE77A17EE903A3B839DF804304F
:100B880043EA0E231BB207EE903AF8EEE77A67EED7
:100B9800877AFDEEE77A17EE903A7B833368EB614C
:100BA800B388A380012385F8233024E09946A8E779
:100BB80001220221384628F063FC98F822300133DC
:100BC80088F8223002E0FFF758FF10B198F82300A8
:100BD80011E069463846FFF75FFF18B19DF800300D
:100BE8009B070BD1002385F82230B9F1000FDDD126
:100BF800002085F8230003B0BDE8F0830722032115
:100C0800D8E7FFF73AFF0028E0D169463846FFF7F2
:100C180043FF7DE72C3000200000002038B5A0F508
:100C280015746379A579DB073FD594F84032F3B1A1
:100C3800A06B0268D36A5B08536294F8443223B10C
:100C4800B4F84A320133A4F84A32E94301F0010109
:100C580028F09CFB012384F84332002384F84132B6
:100C680084F8423284F84032A4F8483238BD94F807
:100C78004332012B04BF94F8413284F842322046B3
:100C8800FFF7ACFD94F843324BB90123E94384F8EC
:100C980043321940A06BBDE8384028F077BB0023E9
:100CA80084F8433205F00101F4E738BD10B5A0F52A
:100CB800147494F84422CAB9A36A616A994228D084
:100CC800591CA069A162C35C2069DBB25B0043F4D4
:100CD80000738142A4F846324FF00A0384F8453283
:100CE80028BFA262012384F8443212E094F9453205
:100CF800002BF8D0B4F846124B08A4F8463201F09D
:100D080001012046FFF71DFE94F84532013B84F8A7
:100D1800453294F84032002B4AD194F841320133DD
:100D2800DBB2092B84F8413203D12046BDE81040DC
:100D380054E50A2B3CD194F843322BB9B4F8483225
:100D480043F00103A4F848326379D9070AD5B4F807
:100D58004802820501D4C30718D4B4F84C320133D1
:100D6800A4F84C32012284F8402294F8432200234C
:100D7800012A84F841321BD1A17984F84332A06B4F
:100D880001F00101BDE8104028F000BBE36AC0F3A0
:100D980047000BB19847E5E7E3696269D054E36916
:100DA800E1680133B3FBF1F201FB1233E361D9E7E8
:100DB80010BDC36BF7B50546002B75D018781AF02F
:100DC80019FC044628B1142383710823C371002336
:100DD8000372002120461AF0A1FC344B6B612046B7
:100DE8001AF04BFC002853DB314B324F143543F8D3
:100DF80020503E5C20461AF04AFC054620461AF070
:100E08003CFCC0B200F0030200F0FC0000F180439B
:100E180003F59C33920099680F20904021EA000165
:100E280099609968EDB295400D439D60204624B1C4
:100E38001AF023FC012303FA00F01F4B58611968CC
:100E4800C24311401960596811405960196801433B
:100E58001960996811409960D9680A40DA609A68FF
:100E680010439860154B9A5DF02A11DD3744F02243
:100E78009A553B7C8DF8043003238DF80530002308
:100E88008DF8063001A801238DF8073028F024FAE0
:100E980054B120461AF0F1FB012313FA00F01FBFEA
:100EA800054A13681843106003B0F0BDAB0800088A
:100EB800783700208CE40208003C0140B837002055
:100EC800F8B54A4F0546FFF774FF97F8246005F117
:100ED8001804002E67D1314645481AF04AFD802291
:100EE8006B212046FFF70CFD96201CF040FB0322E7
:100EF80068212046FFF704FD96201CF038FB0322EA
:100F08006B212046FFF7FCFC0F2000211CF01EFB84
:100F180010226A212046FFF7F3FC0F2000211CF065
:100F280015FB32466C212046FFF7EAFC0F20002112
:100F38001CF00CFB95F8362019212046FFF7E0FC41
:100F48000F2000211CF002FB18221B212046FFF76E
:100F5800D7FC0F2000211CF0F9FA10221C21204692
:100F6800FFF7CEFC0F2000211CF0F0FA10223721E9
:100F78002046FFF7C5FC0F2000211CF0E7FA0122EC
:100F880038212046FFF7BCFC0F2000211CF0DEFAB8
:100F9800032117481AF0EDFC012000211CF0D6FAB5
:100FA800012387F82430002111481AF0E2FC95F853
:100FB80034201A212046FFF7A3FC012000211CF051
:100FC800C5FA03210A481AF0D4FC2846FFF726FC84
:100FD80095F92A30013308D195F92830013304D125
:100FE8000620BDE8F8401CF0F3BAF8BD1030002028
:100FF8000030014038B5044604F11805FFF7D9FE62
:10100800636C80226B212846984764201CF0AFFA55
:10101800636C072268212846984764201CF0A7FAC9
:10102800636C00226B212846984764201CF09FFAC5
:101038000122636C6B21284698470F201CF097FA11
:1010480094F83530012B8CBF1A221822636C1B21AF
:10105800284698470F201CF08AFA636C10221C213E
:10106800284698470F201CF082FA636C94F83420C5
:101078001A21284698470F201CF079FA636C94F8D7
:10108800362019212846984764201CF070FA636CB2
:1010980010223721284698470F201CF068FA636C05
:1010A80028460122382198470F20BDE838401CF017
:1010B8005EBA38B50F4C0546012120461AF059FC96
:1010C800002101201CF042FA2846FFF793FF102266
:1010D8006A2105F11800FFF713FC64201CF047FA99
:1010E800204603211AF045FC01200021BDE83840C4
:1010F8001CF02CBA0030014038B5064C0D460146AC
:1011080020461AF095FC29462046BDE838401AF0DA
:101118008FBC00BF003C00402DE9F04F844B1B788A
:1011280085B003F0FF04002B42D1824A0094D18D90
:10113800D484148592F82A9092F82B5092F82C3087
:10114800128E01924FF03C0B029122462746A4468C
:10115800A646584621B220292DD17649BCF1000F68
:1011680001D0A1F826E00FB181F82A90009808B1C3
:1011780081F82B500AB181F82C30BCF1000F01D056
:1011880020230B856A4B01221A7091F832307BB10B
:101198004A6B896B40F22A33536000234B620B88F9
:1011A8009BB243F001030B80136843F00103136003
:1011B80005B0BDE8F08F604901EB840C9CF8031082
:1011C8009CF802C0CCF1FF0C1FFA8CFCBCF1000F9C
:1011D80000F0A980584ECCF1FF0C01FB0CFC36F84E
:1011E8002480B8FBFBFA4FEA2C2CBAF1050F00F269
:1011F8009D80DFE80AF003394E6074855FFA8CF34E
:10120800A1EB0C0508FB05F5B5FBF0F51D44EDB2A7
:101218000122009217464FEA01284FF0170C48EABE
:1012280005480EEB0C0648EA03080396039EA6EB56
:101238000C09012606FA0CFA029E1AEA080FB246B1
:10124800019E1FFA89F918BFB2463C4E1CF1FF3CBB
:1012580046F829A0EAD20EF1180E1FFA8EFE0134C4
:101268004FF0010C894675E7B8FBF0F200FB1288D5
:101278001FFA88F85FFA8CF3C8F13C08A1EB0C0C54
:101288000CFB08FC0D46BCFBF0FC9C445FFA8CF19F
:10129800BEE7B8FBF0F300FB13835FFA8CF29BB256
:1012A800A1EB0C0C03FB0CF3B3FBF0F31344DBB220
:1012B8000D461146ACE7B8FBF0F500FB15881FFAA0
:1012C80088F5C5F13C085FFA8CF2A1EB0C0505FB2B
:1012D80008F5B5FBF0F51544EDB20B46E9E7A1EBCF
:1012E8000C035FFA8CF5B8FBF0FC00FB1C8C1FFAB2
:1012F8008CFC0CFB03FC0B46BCFBF0FCAC44C5E7C8
:10130800B8FBF0F300FB13881FFA88F3C3F13C081D
:101318005FFA8CF5A1EB0C0303FB08F3B3FBF0F3C6
:101328002B44DBB274E70B460D4671E7494672E77A
:101338009AC70020103000209CC7002010400020D1
:10134800F8B504460D4D006816460F461AF07AF9AE
:10135800012000211CF0FAF8394628461AF068FBEB
:10136800314628461AF064FB20681AF070F901200B
:1013780000211CF0EBF80120F8BD00BF003001404F
:101388002DE9F0410C4C0D4D8046206816460F465D
:101398001AF058F948F0800128461AF049FB3B46F4
:1013A8000022314628461AF015FB20681AF04FF93A
:1013B8000120BDE8F08100BF44750020003C0040DA
:1013C80007B506216A46F720FFF7DAFF9DF80130D6
:1013D8009DF800100B4A1B0143EA01339DF80210E7
:1013E80043EA111313619DF804309DF803101B01A3
:1013F80043EA01339DF8051043EA1113D36003B0A3
:101408005DF804FB10300020F8B50A4C0A4D074679
:1014180020680E461AF016F907F07F0128461AF0E0
:1014280007FB314628461AF003FB20681AF00FF92B
:101438000120F8BD44750020003C00403121F42013
:10144800E2E70448D0F8AC3113B100F5D270184780
:10145800704700BF200800200348D0F8903113B12E
:1014680000F5C47018477047200800200348D0F8DA
:10147800743113B100F5B670184770472008002082
:101488000348D0F8583113B100F5A87018477047D1
:10149800200800200348D0F83C3113B100F59A70B9
:1014A80018477047200800200348D0F8203113B1AE
:1014B80000F58C7018477047200800200348D0F8C2
:1014C80004310BB1FC301847704700BF20080020DA
:1014D8000348D0F8E8300BB1E0301847704700BF38
:1014E800200800200348D0F8CC300BB1C43018478E
:1014F800704700BF200800200348D0F8B0300BB177
:10150800A8301847704700BF200800200348D0F8CB
:1015180094300BB18C301847704700BF200800206A
:101528000248836F0BB170301847704720080020BD
:101538000248C36D0BB1543018477047200800208B
:101548000248036C0BB13830184770472008002058
:101558000248436A0BB11C30184770472008002026
:101568000248836803B11847704700BF200800206D
:101578000B4B984212D0A3F5806398420ED003F526
:10158800804398420AD003F58063984206D003F559
:10159800806398420CBF01200220704701207047E9
:1015A80000040140F0B5262099B027F008FF064650
:1015B800002800F0FF80834C0368A36326201AF0FC
:1015C80019F8E06328B1162383710223C37100233D
:1015D8000372327A2A211AF065F8A16B7A4A00233D
:1015E80052F83350A94202EBC30040F0E58000797D
:1015F80027F040FEA76B3B8823F001031B041B0C5C
:101608003B80724B38461A68FFF7B2FF704BB2FB4B
:10161800F0F0984289BF01330023B0FBF3F303F1E4
:10162800FF335A1C0321B0FBF2F06A4AB0FBF2F018
:1016380082B2B2FBF1F25100218618A9002521F8E7
:101648005C3D02903846E285ADF80C50ADF8065086
:101658008DF80E5027F060FE6023ADF81030B37996
:10166800ADF812505A0757BF01220422ADF81220D4
:101678004FF4807203F00203ADF81450069548BF8A
:10168800ADF81420ADF81C50ADF82050ADF81E5040
:1016980058BFADF82020ADF8225004AA0025717972
:1016A800A06BADF81C3006951BF0F6FC7179A06BA9
:1016B80027F010FFA36BB3F844206FEA42426FEAA9
:1016C800524292B2A3F844201A8892B242F08002A1
:1016D8001A807279198C012000FA02F292B289B24A
:1016E80021EA02011984198C89B20A431A841A88DA
:1016F80092B202431A80384B384A6363384B176BEF
:1017080019690F43176316275D761F76176B3943E0
:101718001163344A9A605D618DF825005B7B8DF812
:10172800270009A88DF824308DF8265027F0D4FD1D
:10173800606B24F0FBF9606B036823F0010303601E
:1017480024F0F4F909A824F0B5F9A36B7279606B59
:101758000E95343313440A9340F22A330D934FF411
:1017680080630F934FF0806309931F4B0B934023C3
:101778000C934FF4805310934FF48043119309A9AD
:101788004FF440331393129524F0A5F97179A26BA5
:101798000C299EBF154B03EB41031D8B93899BB20C
:1017A8001D439581626B136843F010031360012396
:1017B80084F8323019B0F0BD01330E2B7FF410AF2E
:1017C800002015E71030002030E50208B40700209B
:1017D800FF356E0100350C001060024000380240F1
:1017E8002008002089010008104000208CE402082D
:1017F800024B586FC0F30070704700BF00380240BA
:1018080008B5054B1B6803B19847044B044A1A6096
:1018180072B6FEF73FFF00BF98740020FCFF01205E
:10182800EFBEADDE08B5034B1B6803B1984772B62F
:10183800FEF730FF987400200148FEF73DBF00BF57
:10184800100000200148FEF737BF00BF94020020B7
:101858000148FEF731BF00BF180500202DE9F34706
:101868009A46474B914603EB80020546546B002C81
:1018780000F083804C33636004F16E03A36104F5C8
:10188800B773E160E361A16E226E4FF48073236148
:1018980063612368E36504F1040809B1E2636163E5
:1018A80004332264626EA2636365A36594F86D00D5
:1018B80019F0A0FE064694F86C0019F09BFE074646
:1018C80094F8740208B127F0D5FC94F8750208B1B1
:1018D80027F0D0FCD4F870321BB12A4A116B0B43A5
:1018E80013631AF0080F27D00135EDB21EB1072394
:1018F800B371F37135721AF0100F94F8762214BF91
:1019080002211221304619F0CDFEE26B82B994F81B
:1019180078328DF80430D4F880328DF806209B098F
:101928008DF8053001A801238DF8073027F0D4FC85
:10193800404602B0BDE8F08719F0020F0DD06B1CCD
:10194800DBB226B10722B2710522F271337294F824
:1019580076220221304619F0A5FE19F0010FD4D0E5
:101968000135EDB227B10723BB710623FB713D7228
:1019780094F8762202213846C5E7A046D8E700BF8A
:101988008CE40208003802402DE9F74F544E4FF41A
:101998001675454306F14008074693469A4608EBF4
:1019A800050950B93820019127F009FDB0673920A1
:1019B80027F005FD0199C6F87C014FF4167404FB65
:1019C8000764484B2364032384F8453005F13C033E
:1019D800434405F5A072636542440023E16623662B
:1019E800E365A265A366636684F8843284F881326D
:1019F800A4F88A32A4F88C324FF48071D4F87C3180
:101A0800C4F848B0012284F846A0E164216584F84E
:101A1800802284F88E72187919F0ECFD60677C1CBE
:101A2800E4B218B105238371C3710472012119F05E
:101A380075FE4FF4167303FB076301939A6F1079D1
:101A480019F0D8FD019B186720B10523837106237F
:101A5800C3710472222119F061FE01214846FEF784
:101A680070FF32201BF083FD4FF4167303FB0763EE
:101A7800D3F87C411C4B1A681346B3FBFBF1B1F554
:101A8800803F03D3012BFAD95B08F6E7174BB2FB6B
:101A9800F3F22046D2B289B21BF0D6FC4FF416738B
:101AA80003FB076605F51471114BC6F89032002246
:101AB800414420461BF026FCB46F0AF00101204681
:101AC80027F064FC0B4BC6F8943205F515712046D7
:101AD800002241441BF016FC484603B0BDE8F08FD5
:101AE8001030002000E50208B407002040420F0033
:101AF800B50C0008250C000883790A46C16A90F8DD
:101B08004E0241E72DE9F043674E4FEAC00806EB65
:101B1800080985B0054699F8040019F06BFD0746D9
:101B280099F8050019F066FD044699F8060027F0B3
:101B3800A1FB6B1CDBB227B10D22BA710922FA7125
:101B48003B7224B10D22A2710A22E271237204228F
:101B58003A21384619F0A6FD204604223A2119F008
:101B6800A1FD56F83540514B9C426BD103F5F23339
:101B78001A6A42F400121A621A6A22F400121A62ED
:101B8800B04498F80720022A76D0032A76D0484B2A
:101B9800484F012A18BF1F46B4F8048028F03F08B0
:101BA80068464FEA084824F0F9F84FEA1848029BBB
:101BB8004148B3FBF0F082B248EA0208A4F8048076
:101BC800218821F001010904090C21803B498F4239
:101BD80056D13B49B3FBF1F39BB2042B38BF042326
:101BE800013292B22284A383238856F835209BB20F
:101BF80043F001032380238823F4816323F0020345
:101C08001B041B0C43F4806323804FF4804323811F
:101C1800138823F080031B041B0C138013889BB2CA
:101C280043F001031380274A182303FB05230122ED
:101C380083F89922002283F8985283F89A2205B0F3
:101C4800BDE8F083204B9C4209D103F5F0331A6AB2
:101C580042F480021A621A6A22F480028FE71B4B50
:101C68009C428DD103F5EE331A6A42F400021A62DF
:101C78001A6A22F4000282E7104F8DE7104F8BE7B3
:101C880007EB4707B3FBF7F39BB2C3F30B020AB9A1
:101C980043F001034FF4967242434FF47A7143F4D0
:101CA800004392FBF1F29BE7B80700200054004084
:101CB800801A060000350C0040420F00A086010083
:101CC800400D03001030002000580040005C004028
:101CD8002DE9F84FB94BDFF8F4B21822054602FB9C
:101CE800003AB74BB64ADB68B64C43F08073D36012
:101CF800B54B5F68182303FB054292F9981292F8D6
:101D08009A225BF83160013A142A00F2F980DFE880
:101D180012F07B009400AC00BE00CA00D600E000C0
:101D2800030110011D0129018601A301D40131021B
:101D380044024E0258026F028D021500A34B9AF915
:101D4800007003EBC7074FF00909387919F052FC06
:101D58000646787919F04EFC9D4A138801339BB2E8
:101D680007463046138019F072FC384619F06FFCAC
:101D78001121304619F0D2FC1121384619F0CEFC59
:101D88004FF0650803E0052000211BF0DFFB30461B
:101D980019F06AFC10B9B8F10108F4D1304619F00D
:101DA80051FC002105201BF0D1FB304619F04FFCF7
:101DB800052000211BF0CAFBB9F10109E0D130462A
:101DC80019F040FC002105201BF0C0FB384619F033
:101DD80039FC002105201BF0B9FB304619F037FC0F
:101DE800052000211BF0B2FB384619F030FC9AF9A7
:101DF8000000431C01D0FFF785FE182303FB0543B1
:101E0800002283F89A227BE03388182613F40073A3
:101E180006FB054602D186F89A3271E06D4BD6F87A
:101E28009C02D3E90023381A00212AF047FE42F227
:101E38000F73984264DD1523EDE7338823F40063BC
:101E48001B041B0C338033889BB243F480633380BC
:101E580033889BB243F480733380182303FB054314
:101E6800032283F89A22C3F89C725B49304623F018
:101E780015FE18230146002800F0798103FB05436D
:101E880093F8A1220AB90422BBE70F22B9E703FBA2
:101E9800054393F8A02202F0FE023282052283F85D
:101EA8009A22C3F89C724D49304623F0F7FD00286A
:101EB80000F09181182303FB05430622A1E703FBE9
:101EC800054393F8A2223282072283F89A22C3F8A4
:101ED8009C724349304623F0E1FD002800F07B81E5
:101EE800182202FB0542D2F8A4329BB933889BB270
:101EF80043F400733380C2F89C72012382F89A324B
:101F0800182303FB054494F89A32002B7FF4E9AEBA
:101F1800BDE8F88F0823F1E733889BB243F4807358
:101F28003380182303FB0543092283F89A22C3F858
:101F38009C722949304623F0B1FD1826014606FB5C
:101F48000546002800F0B2800A2364E703FB054336
:101F580093F8A02242F0010232820B2283F89A22DF
:101F6800C3F89C721F49304623F098FD002800F002
:101F78003281182202FB0542D2F8A432012B33D158
:101F8800338823F480631B041B0C3380EFF3118325
:101F9800102181F31288318B318889B241F40071A4
:101FA8003180DBB283F311880C2382F89A3218232C
:101FB80003FB0543C3F89C72A2E700BFA8320020C8
:101FC800F0ED00E010300020001000E0B80700201D
:101FD8002C5A002068370020010003008200070007
:101FE8008400070002000300022B15D133889BB23E
:101FF80043F400633380EFF31181102383F31288D5
:10200800338B338823F480631B041B0C3380CBB2DF
:1020180083F311880D23C8E7338B0E23C5E789495D
:10202800304623F021FD18230146002800F09F8048
:1020380003FB0543D3F8A822511CC3F8A812318A20
:102048001170D3F8A422013AC3F8A422012283F81C
:10205800AC22C3F89C72D4E67B49304623F004FDD9
:10206800014600B3EFF31182102383F312883388FB
:102078009BB243F400733380182303FB0543D2B2A9
:10208800D3F8A812481CC3F8A802308A087082F353
:102098001188D3F8A822511CC3F8A812318A1170EC
:1020A8006FF00102D0E7182606FB0546D6F89C0219
:1020B800664B381AD3E90023B7E66349304623F064
:1020C800D3FC18230146002851D003FB0543D3F85D
:1020D800A422032A29D1328822F480621204120C25
:1020E8003280EFF31182102181F31288D3F8A812FD
:1020F800481CC3F8A802308A0870318889B241F4B4
:1021080000713180D2B282F31188D3F8A822511C11
:10211800C3F8A812318A1170D3F8A422023AC3F87E
:10212800A4220C2283F89A2244E7022A12D8328881
:1021380022F480621204120C3280328892B242F485
:1021480000723280328A002283F8AC22C3F89C7273
:10215800012256E6D3F8A822511CC3F8A812318AE6
:102168001170D3F8A422013AC3F8A42222E703FB92
:1021780005469BE7338823F480631B041B0C3380DC
:10218800182303FB054393F8A02202F0FE023282D3
:10219800102283F89A22C3F89C722D49304623F006
:1021A8007DFCC0B1182303FB0543112229E603FB7C
:1021B800054393F8A2223282122283F89A22C3F8A6
:1021C8009C722449304623F069FC20B1182303FB94
:1021D8000543132215E62049304623F045FC18260E
:1021E800014606FB054600283FF460AF142312E6BB
:1021F80003FB0543D3F8A4226AB1D3F8A812013A25
:1022080011F8010B3082C3F8A422C3F8A812C3F84E
:102218009C721222F5E5328892B242F40072328042
:102228000122C3F89C7283F8AC22EAE533889BB29A
:1022380043F4007333804FF6FF33B382182303FB54
:10224800054383E7400000100400001068370020B1
:1022580082000700840007000004001038B50F4D05
:10226800182404FB005494F89952ADB1C4F8A43270
:10227800049B84F8A22249000022C4F8A832022351
:1022880084F8A01284F8A12284F8AC2284F89A3247
:10229800FFF71EFD94F8AC52284638BD10300020D8
:1022A80013B50B4C00940423FF2228210120FFF7CB
:1022B800D5FF58B121786378064A43EA0123138091
:1022C800A178E37843EA01235B11538002B010BD83
:1022D800747500201030002007B5054B0093FF22CD
:1022E800042328210120FFF7B9FF03B05DF804FBA0
:1022F8007475002030B587B000250DF10F03C58235
:102308000583458300930123044606220D211846C0
:10231800FFF7A4FF10B39DF80F0010F004001DD0C4
:1023280004AB00932A4606230D210120FFF796FFF0
:10233800A0B19DF811209DF8103043EA0223E382F2
:102348009DF813209DF8123043EA022323839DF859
:1023580015209DF8143043EA0223638307B030BD8B
:1023680010B586B000220DF10F03C28202834283AA
:102378000093012304460E211846FFF76FFF10B3A0
:102388009DF80F0010F008001DD004AB0122009347
:102398000E2106231046FFF761FFA0B19DF810201B
:1023A8009DF8113043EA0223E3829DF812209DF83C
:1023B800133043EA022323839DF814209DF8153037
:1023C80043EA0223638306B010BD1FB502AB04467F
:1023D8000093032206231E210120FFF73FFF20B9A7
:1023E800E0822083608304B010BD9DF808209DF82A
:1023F80009309DF80A1043EA02231BB21A4A07EE75
:10240800903A92ED007AF8EEE77A67EE877A92EDE5
:10241800027AFDEEE77A17EE903AE3829DF80B30E8
:1024280043EA01231BB207EE903AF8EEE77A9DF8EB
:102438000C1067EE877A92ED017AFDEEE77A17EED7
:10244800903A63839DF80D3043EA01231BB207EEEF
:10245800903AF8EEE77A67EE877AFDEEE77A17EEBC
:10246800903A2383BFE700BF980700201FB503AB4E
:1024780000930022032377210120FFF7EFFE9DF848
:102488000D309DF80C001B0243EA00439DF80E0036
:10249800184305B05DF804FB08B5FFF7E7FF014BEB
:1024A800986008BD1030002008B5FFF7DFFF014B2A
:1024B800586008BD103000201FB503AB0093F6220A
:1024C800032377210120FFF7C9FE9DF80D309DF801
:1024D8000C201B0243EA02439DF80E201343054AD1
:1024E800B2F92020C2F10802D340034A936105B033
:1024F8005DF804FBE8740020103000201FB503AB22
:102508000093F622022377210120FFF7A7FE9DF80A
:102518000C209DF80D3043EA0223024A938205B04D
:102528005DF804FB1030002007B501200093134626
:102538000A466821FFF792FE03B05DF804FB13B565
:102548008DF80730104B182404FB003494F89932A6
:10255800BBB1012384F8A132C4F8A4320DF10703FA
:10256800C4F8A8320023490084F8AC32022384F866
:102578009A3284F8A01284F8A222FFF7A9FB94F8F3
:10258800AC32184602B010BD1030002008B5012347
:102598000B220D211846FFF7D2FF28B11D2309226F
:1025A8000D210120FFF7CBFF00F0010008BD01233A
:1025B80010B510220E211846FFF7C1FF044614205B
:1025C8001AF0D5FF4CB1A02311220E210120FFF7EC
:1025D800B6FF04460A201AF0CAFF204610BD2DE9AE
:1025E800F04F054687B032201AF0C1FF19230022A8
:1025F8001E210120FFF7A3FF012280231E21104680
:10260800FFF79DFF642000241AF0B1FF754E28469D
:10261800FFF7DBFEA146009401942746A346012359
:1026280002221E211846FFF78AFF46201AF09FFF54
:102638002846FFF7CAFE80B1B5F91810B5F91A2077
:10264800B5F9160091420B46A8BF13468342A8BFAE
:102658000346B34203DA09F10109013708E0019B97
:1026680003440193009B0B440BF1010B00931444AA
:10267800BBF1090F2ADD1A2300221E210120FFF7D2
:102688005EFF4FF000084646C246012302221E2183
:102698001846FFF754FF46201AF069FF2846FFF74F
:1026A80094FE88B1B5F91810B5F91AE0B5F9160015
:1026B8004C4A71450B46A8BF73468342A8BF0346E0
:1026C800934206DA08F1010801360CE0042FA6DD72
:1026D800D1E7019B1B1A0193009B5B1A0AF1010ABF
:1026E8000093A4EB0E04BAF1090F6EDC042ECCDDC6
:1026F8000F23ADF80C3002A84FF40043ADF80E30AC
:10270800CDF810B0CDF814A018F036FF1023ADF8AE
:102718000C3002A848F20103ADF80E300497059674
:1027280018F02AFF0025B9F1000F02D1B8F1000F07
:102738000DD01123ADF80C3002A848F20103ADF812
:102748000E30CDF81090CDF8148018F015FF264BF8
:10275800002D40D0DDED017ADFED246AF8EEE77A4E
:1027680086EEA77AF0EEC77AC3ED007ADDED007A3F
:10277800F8EEE77A86EEA77ADFED1D6AF0EEC77A03
:10278800C3ED017A07EE904AF8EEE77A86EEA77A6B
:10279800F0EEC77AC3ED027A782300221E210120C9
:1027A800FFF7CDFE012220231E211046FFF7C7FEAA
:1027B800002302221E210120FFF7C1FE64201AF027
:1027C800D6FE284607B0BDE8F08F042F90DC042E13
:1027D8008EDC0125A7E74FF07E521A605A609A6096
:1027E800DAE700BF01F0FFFF9807002000801F46CE
:1027F8000080144630B5002387B0C3820383438327
:102808000DF10F0501230446009502220C211846FC
:10281800FFF724FD18B90025284607B030BD9DF8FC
:102828000F30DB07F7D504AB0093032206230C21F6
:102838000120FFF713FD0123009509220C211846FA
:10284800FFF70CFD05460028E5D09DF80F3013F082
:102858000C0FE0D19DF811209DF8103043EA0223B7
:10286800C3EB83339B009DF81320E3829DF812305D
:1028780043EA0223C3EB83339B009DF8152023838F
:102888009DF8143043EA0223C3EB83339B00638330
:1028980001230A220C211846FFF751FEBCE71FB599
:1028A80000230A220C210120FFF749FE14201AF008
:1028B8005EFE0F230A220C210120FFF740FE0A20AA
:1028C8001AF055FE03AB0093102203230C210120BC
:1028D800FFF7C4FC0A201AF04AFE00230A220C2142
:1028E8000120FFF72CFE0A201AF041FE0DF10B041F
:1028F8000123009402220C211846FFF7AFFC0123A4
:10290800009409220C211846FFF7A8FC01230A228B
:102918000C211846FFF713FE012004B010BD012357
:102928004822772118460AE60123582277211846BB
:1029380005E6054B93F820309B01343303F0FC0384
:10294800F42277210120FAE5E87400202E23F422EE
:1029580077210120F3E5134601200A466821EEE5B8
:1029680013B50023019300933E4B1A6842F480325A
:102978001A6019461A6802F400320092019A01326C
:102988000192009A1AB9019AB2F5A04FF2D10B68D8
:1029980013F4003318BF01230093009B012B45D18A
:1029A800304B31491A6C42F080521A640A6842F47A
:1029B80040420A609A689A609A6842F400429A60B3
:1029C8009A6842F4A0529A60284A5A601A6842F0FB
:1029D80080721A601A689201FCD5254A40F2057186
:1029E80011609A6822F003029A609A6842F0020223
:1029F8009A601C4A936803F00C03082BFAD1936879
:102A08001C4903F00C03042B12D0082B12D01A4BCC
:102A18000B60144B9A68194BC2F30312134493F8D2
:102A2800A4270B68D3400B6002B010BD00BFFDE7C0
:102A3800134BEDE75468506852686302C2F388127A
:102A480000F03F004CBF0E4B0B4BB3FBF0F353436E
:102A5800044A5268C2F3014201325200B3FBF2F356
:102A6800D6E700BF00380240007000400854400715
:102A7800003C0240B40700200024F40000000020BD
:102A880000127A0010B5104CD4F8883043F4700363
:102A9800C4F888300D4B1A68002142F001021A6010
:102AA80099601A6822F0847222F480321A60084A07
:102AB8005A601A6822F480221A60D960FFF750FF22
:102AC8004FF00063A36010BD00ED00E00038024045
:102AD80010300024000000002DE9F04F2DED028B8E
:102AE800C14CDFF89883C14F0026A3B04FF4806231
:102AF8003146204688F800602BF043FCBC4BC4F8F4
:102B08000434C4F80064C4F80864FFF729FFB94B1B
:102B1800FB60B94BB9485A6FB94ABA605A6B22F090
:102B280080025A635A6F42F080725A67196BB54A2D
:102B38000A431A635A6B5A639A6B9A631A6C42F087
:102B48005B5242F47B1242F41F6242F00F021A6495
:102B5800596CAD4A0A435A6422AD01238DF84F30AF
:102B680048F2FF7345F8403D29464FF6FF798DF846
:102B78004C608DF84D608DF84E6023F053F929466E
:102B8800A248CDF8489023F04DF92946A048CDF841
:102B9800489023F047F929469E4823F043F92946EF
:102BA8009D4823F03FF929469C4823F03BF92946E4
:102BB8009B4823F037F929469A4823F033F92946E8
:102BC800994823F02FF9284623F0E8F8974A129BF2
:102BD8009749B3FBF1F3C4F81034D368C4F814640C
:102BE80043F08073D360934A934D136843F0010315
:102BF80013602B68C4F818644FF47A72B3FBF2F3CD
:102C0800013BB3F1807FC4F81C6407D28B4A536040
:102C1800F02387F8233007239660136088487749A4
:102C2800884A7D4F4FF0010E30F8026F002346FAB4
:102C380003FC1CF0010F18BF0EFA03FC03F101039B
:102C48001EBF1160A2F804C00C32102BEFD101F5A1
:102C58008061B942E8D17C4B1B787E2B00F016824C
:102C680014F029F813F07EFC784E13F0C5FDF379C3
:102C7800EB720021EB74EB76084618F0B0FC98F87C
:102C88000030B279724D43F0010388F80030714B7F
:102C98001A70714B00201B682B6026F015FB0596F7
:102CA8006E4E0023A84617274FF0020956F8230056
:102CB8005D1C30B1877180F807900572012118F00A
:102CC8002DFD032D2B46F1D1002026F0FDFA4A4AAE
:102CD8006348536C634D43F480435364002140229E
:102CE8002BF04FFB604A4FF0FF33C4F860340021EB
:102CF800C2F80330012018F072FC2B78032B0BD19B
:102D08006B7A012B08D86E7DFEF772FD074618B95D
:102D1800013E092E41F23C874FF4FA701AF027FC65
:102D28004FF4A07200215148DFF85491504F2BF016
:102D380028FB002609F1080AF05900235AF8332025
:102D480090424FEAC30140F0C28109EB0103187BAE
:102D5800103626F08FFAD02EEED1454E06F1D00A65
:102D68003746387918F046FC103717F8082C17F84A
:102D7800091C18F097FC5745F3D1D8F800A03D4836
:102D88000AF0400305273C220021049384F8AC751F
:102D98002BF0F7FA384B039300223B46354F114688
:102DA8004FF0FF0C039810F901EF0390049802F814
:102DB80007E002EB070B40B9BEF11E0F01BF03F19C
:102DC800FF338BF800C0DBB201210C323C2AE9D179
:102DD80009B184F8AC35DFF8ACB09BF80070384620
:102DE8001AF0B8FEFA004FE05833002000ED00E07A
:102DF80095B401080005FA050038024000000240B9
:102E080000000008FF916700335F070000040240DC
:102E180000080240000C024000100240001402406A
:102E280000180240001C024000200240F0ED00E0C3
:102E380040420F00001000E0B407002010E000E05E
:102E480026E50208D896002000000E08B674002077
:102E5800D4750020C5810020145C00208C04030870
:102E680078370020887A0020B8370020C43700203F
:102E7800840303081CBF002067FF020868C80020FD
:102E880028E50208FC71002009EB02039F4993F82A
:102E980079E081F800E093F87A109D4B1970837AF5
:102EA800002B40F01A81CAF3401184F8AD15002BAD
:102EB80040F01581974B0AEA0303003318BF01233A
:102EC8009548C4F8B03540F2DC5E002320F813E0E2
:102ED8000133082BFAD1002940F00381173F022F54
:102EE80009D823F0CFFF8D4B1B7823B10123C4F8F9
:102EF800B03584F8AD358A4B8A489FED8B7A03F15B
:102F08006004B3F90820B3F90610891A07EE901A7D
:102F1800F8EEE77AB3F90410C7EE876A521A0C3351
:102F28009C4200F1080007EE902AF8EEE77A40ED9F
:102F3800026AC7EE876A40ED016AE2D11AF01CFE08
:102F4800202200210AA82BF01CFA9BF800001AF096
:102F580001FE00B1007A0A90052023F077FB18B132
:102F68000088003018BF0120D8F8002029788DF893
:102F78003400C2F340034C1E8DF83530C2F3801381
:102F88008DF83730634263418DF82D30C2F3C0337A
:102F98008DF8303012F4006304D0644B9B7A581ECD
:102FA800434243418D1E8DF83130C2F300438DF802
:102FB80038306B426B415E4D8DF82E30CF1E95F840
:102FC800AD3579427941003318BF01238DF83A3085
:102FD800C2F300538DF83B30564B8DF82F101988EB
:102FE800ADF83E1054495B88ADF83C300B7A8DF84B
:102FF8004030581E02288CBF00200120D20448BF50
:103008004E4A8DF8360048BF9288C8888988ADF83E
:10301800441048BFADF84420042BADF8420008D155
:1030280000244FF480508DF8364018F0ADFEADF80E
:103038004440D8F800304248C3F300728DF82C2081
:10304800059A1C01927A85F8F42548BF00234FF0B1
:1030580070024FF0000144BF8DF83A308DF83B30D4
:103068002BF08FF94FF00009354C4F469DF834305E
:10307800002B69D03379363B012B65D8032263785E
:10308800019222780092BAB2012187E118F048FF34
:1030980000287FF4E9ADE3E5002026F015F90021CA
:1030A800D4F8680418F0D8FA002178201AF04EFAFB
:1030B800012026F009F90121D4F8680418F0CCFAA7
:1030C800782000211AF042FA013601F078BD013368
:1030D8000E2B7FF433AE00203AE60121E5E601230A
:1030E800EEE691440D4BD9F87C1099F878201A70C7
:1030F80000293FF4F3AE134800239342BFF6EEAE27
:1031080051F823E040F823E00133F6E7E97B00209B
:10311800EA7B0020200010002E5A0020E87B0020C7
:103128006C7C00200C3900200000FA43667A0020ED
:10313800583300201E5B0020E6710020E07100205B
:103148005C5A0020EB7B0020382026F038F99DF8E7
:10315800373023B118B1026833689A428ED09DF88F
:103168002F30002B40F08F809DF82D301BB1F36875
:10317800980700F18A809DF82E3013B1F36803F0A8
:1031880001030A9A002A40F082809DF83A10F268FA
:1031980011B1110700F1C5849DF83B1011B1D0069B
:1031A80000F1BF8412F0040F40F0EC80002B00F017
:1031B800F880012B40F085800023FF219DF840E036
:1031C800684885F8F835C5F8FC35C5F80036C5F8FF
:1031D8000436C5F8483685F84C1685F84D1685F836
:1031E8004E3685F84F3685F850361918C96811F0EB
:1031F800240F03D032681958914252D01033D02B83
:10320800F3D14FF0000885F85486C5F86066307928
:1032180018F0F0F928B1022383710123C37180F8F3
:103228000880F17918F07AFA0122002130461AF064
:103238000BF94D4A4D4BC5F864364FF000084C4B1E
:10324800C5F86836111F3046C5F86C861AF05AF86A
:1032580042467179306818F01FF9A37804EBC3036C
:1032680020225A722379013323716378CDF80480C0
:1032780022780092BAB20021132018F097F9A378A7
:103288000133A3708DE000237BE7022379E7013A3D
:10329800012A8BD8F268510600F1438412F0200FFE
:1032A80082E70EF1FF33032BABD8DFE803F0020807
:1032B80006080C222F4B1A77A3E75422FAE71522A7
:1032C800F8E75FFA89F81C2303FB085300224FF044
:1032D800010A83F8562683F85E2683F8558683F814
:1032E80054A6C3F86066307918F084F908EB0A032D
:1032F800DBB220B180F806A080F807A00372F1794C
:1033080018F00CFA0122002130461AF09DF81C230F
:1033180003FB08F3EA181849C2F864161749C2F8FB
:1033280068164FF000081649C2F86C8603F11402BB
:1033380010330A443046194419F0E4FF42467179C3
:10334800306818F0A9F8A37804EBC30340225A7236
:10335800E3780133E370637809F1010901220192EE
:1033680086E700BF84030308C039002051AF010875
:10337800A1B00108B4070020DDB4010829AF010895
:10338800AC39002094F801A0BAF1050F40F240834F
:103398000121019123780093BAB25346122018F004
:1033A80005F901370D2F06F110067FF45FAE9BF883
:1033B8000060C94F30460024173E3C701AF0CAFB23
:1033C800022E00F2F183DFF854E30EF1600C0EEBED
:1033D8000403D3ED007AF5EE407AF1EE10FA40F0EE
:1033E800D683BE4E3368D80400F1FA831AF09CFBEA
:1033F8009DF8363013B9012385F81438B84C0021EC
:10340800022018F0ECF82378242043F004032370FA
:1034180018F0F0F80122C5F8180885F81C2803945C
:1034280040B1112282710222C2710022027201216E
:1034380018F074F900201AF0BDF8302018F0DAF806
:10344800044628B1152383710223C3710023037234
:103458002046012118F062F92046002118F0FCF8F6
:10346800A04CA14F4FF01D084FF00E09BC42C0F010
:10347800D983002018F0F8FA012018F0F5FA022094
:1034880018F0F2FA022023F0E1F8002801F0A983ED
:103498000388002B01F0A58300230793336899075D
:1034A80044BF95F81D288DF81C201A0444BF95F8D0
:1034B8001E288DF81D201F0507D58C4B9B7A012BE4
:1034C80004BF95F81F388DF81E30894B89481B7842
:1034D80003F0FD03012B04BF95F820388DF81F3049
:1034E8001E2200212AF04DFF0023834A07A81C460C
:1034F800195C4F1E032F94BF42F8231042F8234053
:103508000133042BF4D1002352F82310012901F0D0
:103518001E830133042BF7D1002352F8231002290C
:1035280001F01A830133042BF7D1002352F823103A
:10353800032901F016830133042BF7D10023194620
:1035480052F82300042808BF42F823100133042B43
:10355800F6D16A4F674CDFF8AC914FF00F0A4FF085
:10356800000B07F5A478A07940B394F9075018F038
:1035780041F828B106238371002380F807A003725D
:10358800132118F0CBF8A179002318F8130088420A
:103598004FEA430240F05883BB1893F8493123722D
:1035A800182303FB05956B6B63725A1C0723E372A0
:1035B80001236A63A37285F830309B440AF1010A3B
:1035C8005FFA8AFABAF1130F04F10604CBD1BBF102
:1035D800000F40F05183FEF70BF9044688B9014605
:1035E800032017F0FCFF204625F06EFE052425F089
:1035F8005FFE642019F0BBFF013CF8D1204625F09E
:1036080063FE3F4D21F0FCF80023C5F860383D4BC0
:103618004FF0FF329A6633689C032FD5C82019F003
:10362800A6FFAE200EF097F808B10EF09AF8364CC7
:1036380085F86408C82019F09AFF3449204618F024
:1036480039F9082385F870382046152385F871382C
:10365800C5F878480EF038FB002385F87C3801233C
:1036680085F87D3819F02EFF19A3D3E90023171820
:1036780043EB0108C4E906780EF01AF93368180616
:1036880042BF234B234A1A601EF050F910B901209B
:1036980019F09EFF0021042017F0A1FF039B039A55
:1036A8001B781D4C43F002030020137025F00CFE1C
:1036B8000A2625F0FDFD192019F059FF63689903C2
:1036C8002ED4012019F076FF2AE000BFAFF3008066
:1036D800404B4C0000000000B8710020D475002059
:1036E80068C800209056030898560308667A002098
:1036F80068750020793B00208C75002028E50208B9
:1037080058330020B4070020C03B002090E6020890
:10371800D8750020175B00208C7B0020AC3A002075
:10372800192019F024FF013E002019F043FF16F07C
:10373800FF06BED1304625F0C7FD1AF079F9BC4B1B
:10374800DFEDBC7A1B7C9FEDBC8ABC4F00EE103AC3
:10375800B8EEC00A20EE270A0FF090FEB84B83EDB2
:10376800000AB84B83ED008A83ED018A83ED028A53
:10377800B54B1E70B54B1E70B54B4FF07E521A609C
:10378800B44B83ED008AB44B83ED008AB34B83EDD1
:10379800008A27F0DDFE2022FF2138462AF0F1FDBD
:1037A800AF49B04BD1F800C03E7001221CF00206B0
:1037B8001A70384606D07A700222BA7004221A703B
:1037C8001A22FA70A84F39684A0204D41A78541C8D
:1037D8001C70142484541A784FF0040E541CE4B25C
:1037E80000F802E01CF00A0E1C7009D04FF0050822
:1037F80000F80480D41C0232D2B21C70062484540F
:103808008C0604D51A78541C1C70072484541CF0A8
:10381800040F964C01F0800C05D12268D20611D510
:10382800BCF1000F14D01A784FF0030800F802809A
:1038380002F102080132D2B283F800804FF0180872
:1038480000F80280BCF1000F02D0BEF10A0F06D0CA
:103858002268D2061ED5EEB1BCF1000F1AD01A7834
:1038680009268654561CF6B24FF0080E00F806E0FA
:10387800961CF6B24FF0130E00F806E0D61CF6B20E
:103888004FF0150E00F806E0561D0432D2B21E7035
:10389800162686542668F40614D51A780A24845401
:1038A800541CE4B24FF00E0E00F804E0941CE4B28D
:1038B8004FF01B0E00F804E0141D0332D2B21C7046
:1038C8001C248454720604D51A78541C1C701924BC
:1038D80084541A780B268654541CCE0348BF0232EF
:1038E800E4B21C7042BF1A700C2202551A780F26D7
:1038F800541CE4B286544E051C7006D55C4E367ACC
:103908001EB102321A7010220255090304D51A7822
:10391800511C1970112181541A78564EDFF86CA188
:10392800DFF86C91DFF86CB117218154511CC9B2D2
:1039380012244454911CC9B21D244454D11CC9B248
:103948001E244454511D1970131DDBB21F22C2548A
:1039580000214FF422724848484C2AF012FD21F009
:10396800E9FA474B4748DFF830C1DFF830E1C4F8DF
:1039780020E000221A809A70DA70338BCDF80CE0C0
:103988000021C4E90401C4F81C90227685F888282F
:1039980019B2D646E046DCF800002AF8121000F505
:1039A80096704BF822000132122AF4D13A68D204F8
:1039B80058BFB6F91E10AEF80610334901F1500091
:1039C8000A78AAB98A7891F803C0624510D2002A09
:1039D80000F03482013A02EB820291F801C002EB56
:1039E800820202F561720CF1040C92B22EF81C20CE
:1039F80004318842E4D131784A1E052A00F2428215
:103A0800DFE812F02C022C02F003F9054002080648
:103A18009DF84020BDF842E0BDF844300392511EA5
:103A28009DF82C0003296AD8DFE801F06D61653A3A
:103A38008002001035FA8E3C000000004EC90020BC
:103A4800D00200104C02001018020010C80100102B
:103A58006002001064020010680200106C0200107E
:103A6800347600206EC90020D4750020947B002095
:103A78005C4D0020887A002034B20020D07C0020E1
:103A88006CC80020A0860100B4C8002016C700201A
:103A9800393E0208E43B0020D4960020353E020857
:103AA800DFF8C081152100236A4A00904A43304656
:103AB800B2FBFEF292B217F057FE674B43F82A00AA
:103AC8009DF83630C0F80C800BB3A378192204EBAC
:103AD800C3035A72A2786378013204F8323004EBD7
:103AE800C2020133DBB256606370022237E4DFF8AA
:103AF80078811521D8E7DFF874815421D4E7DFF8FD
:103B080070810121D0E7DFF86C810C21CCE7039BA1
:103B1800042BA37808BF0D2204EBC30318BF0922A6
:103B2800D7E794F80080B8F1070F1FFA87FA07D98A
:103B3800022263780192CDF800805246FFF7A4BABA
:103B4800BDF83C20434991FBF2F29DF82C10BDF8DA
:103B58003E30009192B20121304617F005FEA3785D
:103B6800013304EBC3010A224A70227804F8332097
:103B780005EB880801324E60D2B203212270C8F8E2
:103B880034076378009201915246FFF774BB0FCB5C
:103B980004EB0C0686E80F003B7810340133602CE8
:103BA8003B707FF414AC1CE42C4A437A5278D0F86A
:103BB80004C0934228BF13463B70BCF1000F3FF48A
:103BC80010ACDFF89C80DEB2B442BFF60AAC230129
:103BD80003EB080E63440FCB01348EE80F00F3E7C4
:103BE800397801297FF602AC1D4A131D02EB011238
:103BF8001432F6EE007A103393423FF4F7AB13ED2C
:103C0800037A27EE277A03ED037A13ED047A27EE79
:103C1800277A03ED047A13ED027A27EE277A03ED6B
:103C2800027AE8E72378022B0CD1E07817F0E2FC5F
:103C380040B1002280F8068080F8079002722021A7
:103C480017F06CFD043411E40133102B7FF49DACA4
:103C58000023A4E440420F00BC7100205C5A0020FD
:103C68000C3B0020E9B00108A9B2010873B20108B1
:103C7800D9B00108D5B20108724C4FF00008237C76
:103C8800002B00F0A8804FFA88F36079049325F0A0
:103C9800F1FA20796C4D25F0EDFAA06821F046FF85
:103CA80012A821F007FF2368684AA0684C331393D1
:103CB800E36812930A2303FB08231493636916939A
:103CC8000022022BB4BF13464FF4806318934FF4BD
:103CD800006319934FF400531A934FF480731B93A6
:103CE80012A94FF40033159217921C9321F0F3FE9A
:103CF800A268136843F001031360554B544A5B688C
:103D080023F4733323F4477323F0030343F440335A
:103D18005360226861695368012923F04073D4BF56
:103D28000020012023F4807343EA00235360906845
:103D3800484B034043F002039360D36A013923F4EC
:103D48007003C9B243EA0151D16201234FF01F0C3D
:103D58004FF0070AA97A51B395F9071004988142E0
:103D680025D1297AEF7A03F1010E09295FFA8EFE2F
:103D78003BD9A1F10A00D2F80C9000EB40000AFAF6
:103D880000FB29EA0B0907FA00F040EA0900D060B5
:103D9800062B37D8013B506B03EB83030CFA03F770
:103DA80020EA070001FA03F31843506373462A49CF
:103DB8000635A942CED1936843F4007393609368A3
:103DC80043F480739360936843F0010393609368AE
:103DD80043F08043936008F10108B8F1030F04F140
:103DE80018047FF44CAFFFF7F6BB106901EB4109EB
:103DF8000AFA09FB20EA0B0B07FA09F747EA0B074F
:103E08001761C5E70C2B0CD8073B106B03EB83033A
:103E18000CFA03F720EA070001FA03F318431063CA
:103E2800C4E70D3BD06A03EB83030CFA03F720EADF
:103E3800070001FA03F31843D062B7E70CF1010257
:103E4800C9E500BFD4070020793B0020983B00203B
:103E580000230140FDF7FFC0913B002044F620629B
:103E68000023C4E90223012399422376B34B07BFF9
:103E7800E36108221022E3610BBFB14BB14B227002
:103E8800227023623B68980040F17086AE4BAF49C0
:103E980093F85430AE4885F8E03817F00BFD1F2032
:103EA80017F0A8FBAB4C206028B1122383710E23B6
:103EB800C37100230372092117F030FC0221A648C0
:103EC80017F057FD206817F0BDFB02210020FDF711
:103ED80013F9206817F0BBFB95F8E0389F4A85F87E
:103EE800F4384FF40051002322F813100133B3F5CE
:103EF800F07FF9D1964C9A4D204608F066FA204694
:103F08002C600DF0E1FE974B974A1B68286803F078
:103F18000403137017F023FD944A954912A818F06A
:103F280085FA12AB06220521286817F0EFFC072254
:103F38001146904B286817F0E9FC8F4B2868082237
:103F48000B2117F0E3FC09220B218C4B286817F092
:103F5800DDFC286803685B6A984719F0B3FA884B58
:103F680000F5741000F5106018600023854A1C469F
:103F780099189C546833B3F5D06F4C70F8D14FF44E
:103F8800005022F0A7FBC0B10323427990F9020048
:103F980000937D4B019453F822304FF400510022D6
:103FA80022F0D0F8794B186038B1794B0020002105
:103FB800C3E90001774B01221A703B68190622D524
:103FC800754C764B6360764B2360764B764E0025B6
:103FD8005D609D60657408F0C7FDD8F80030236205
:103FE8002846E57408F024FE23681A780C23534306
:103FF800F35C022B40F01D83012008F019FE00211C
:10400800052017F0ECFA694B694AC3F8242100240B
:10401800012683F84D4783F8604783F84C471E70A4
:104028005C709C70DC70C3F82C211C71DC711C72F4
:104038005C729C725C7483ED4A8A03F26C7383ED44
:10404800008A16F06BFD3B685A4DDA032C7010D5C8
:1040580008F0EEFC214640F6A84257482E702AF098
:1040680090F9FDF79FFAFDF757F82146062017F05B
:10407800B6FA3B685B0505D51BF042FB002107201B
:1040880017F0ADFA272017F0B5FA4C4B186028B195
:104098000E2383710123C37100230372202117F0BB
:1040A8003DFB474B4749484C01221A701C25002309
:1040B800084605FB0346DAB276688E4203D0013320
:1040C800102BF6D10022414C41491C2505FB024228
:1040D8000B6BD26F3F4C13430B63036823F0010350
:1040E80003602C2017F086FA206020B10E2383711C
:1040F800C37100230372092117F010FB0021364811
:1041080017F037FC4FF47A7019F031FA2068334C05
:1041180017F09DFA00220A2311462F4817F05AFC7F
:1041280025F005FA002840F0C1822D4BD8F8002070
:104138005A61012283F824201876C0E2913E0208D1
:104148009D420208573E0208AE5B0020C0E6020806
:104158003C3C00200C5C0020003C0040503C00200F
:1041680054C700203CC700206CC70020401C03082F
:10417800461C0308571C0308651C0308701C030829
:104188007CC70020C0BF0020F0FE0208F4730020A6
:1041980028740020F0730020D8750020F0BE00209D
:1041A800175B00203876002090FE0208BCB400207F
:1041B800000080BF99C7002010400020DC73002059
:1041C800E47300207060024020080020B40700203B
:1041D800003802408C73002000380040A18601009E
:1041E80058BF0020707A092800F29780DFE810F0A5
:1041F8000A000A0051009B00C000E100E10026010E
:10420800A601D401AB4BAC491C600128AB4BAC4AAE
:1042180034D14FF0030E83F800E007230B700C2312
:104228001070237042F6F8220023C4E90223A54B3C
:10423800E3614020A44B236222F04CFA8246002816
:104248006BD00FF015FAF27A9AF902E000280CBF49
:1042580001230323002A0CBF0022082201929B4A53
:10426800009382464FF4E1334021704621F06AFF03
:10427800BAF1000F4BD0C5F8D40848E002201870F6
:1042880003230B70002313700723237045F2F052A9
:10429800CAE78F490A221B0193FBF2F30022A3F518
:1042A800B06341F822300132122AFAD12270002379
:1042B80042F6F822C4E90223864BE3614020864B8C
:1042C800236222F007FA824638B30FF0D1F9B37AA5
:1042D800F17A9AF902E000280CBF01220322002B90
:1042E8000CBF0623072300290CBF002108210B431C
:1042F80082468DE80C004021784B794A704621F0BF
:1043080021FFBAF1000F02D0764BC3F8D408003071
:1043180018BF012000287FF4B5AD00233370C4F81E
:104328001C90039BADE51023237042F6F82200236E
:10433800C4E902236C4BE36140206C4B236222F0FA
:10434800C9F982460028E8D00FF092F9F27A9AF972
:1043580002E000280CBF01230323002A0CBF00221F
:1043680008220192009382464FF4E133604A7BE7CA
:104378000823237042F6F8220023C4E902235D4B88
:10438800E36140205C4B236222F0A4F982460028B6
:10439800C3D00FF06DF9002200280CBF01230323BE
:1043A8009AF902E00192009382464FF4E133534AAE
:1043B8005AE7534A534900231370534A0B704FF07E
:1043C8000C0E062884F800E013702CD04F4B1B22EB
:1043D8001A704F4B83F800E04E4B05221A704FF4C9
:1043E800E13B42F6F8220023C4E902234A4BE36189
:1043F80040204A4B236222F06DF9824600288CD077
:104408000FF036F9F27A9AF902E000280CBF01237E
:104418000323002A0CBF002208220192009382463F
:104428005B463F4A20E7394BDFF80CB121221A706E
:10443800374B83F800E0374B1870D2E7394B4FF011
:10444800000B83F800B00E23237044F6206200238B
:10445800C4E90223344BE3614020344B236222F049
:1044680039F900283FF459AFB0F800A0304B90F963
:10447800020083F800B00AF4107AF37ABAF5107FD4
:1044880014BF012203229BB9BAF5107F14BF5B4603
:1044980008238DE80C0040214FF4E133254A21F030
:1044A80051FEBAF5107F7FF432AFC5F8D8082EE771
:1044B8000823EEE7B8770020BC770020B677002005
:1044C8006B770020A93B0208D13B02088D41020806
:1044D800C0770020613C0208953C0208A0860100D4
:1044E800DD41020858330020113B0208253B020831
:1044F800E1400208893A0208A13A020895400208F8
:1045080071790020C8760020707900207279002027
:10451800EA76002073790020CD390208E1390208D3
:10452800CD3F0208137A0020BD3F02089B4C0208C9
:10453800117A0020E143020890D00300102341F2D1
:104548007C5223700023C4E90223B14BE361B14BD1
:104558002362B14B00221A70B04B282240201A70F7
:1045680022F0B8F800283FF4D8AEF37A90F90200A8
:10457800AB4A002B0CBF00230823019303230093AD
:104588004021A84B21F0DEFD0121C5F8DC0819F017
:1045980019F9D5F8DC08BAE6A3490A221B0193FBEE
:1045A800F2F30022A3F5B06341F822300132112A58
:1045B800FAD10023227042F6F822C4E902239B4B69
:1045C800E36140209A4B236222F084F800283FF4EC
:1045D800A4AEF37A90F90200964A002B0CBF002390
:1045E80008230193032300934021934B21F0AAFD54
:1045F800924B18608BE6122344F620622370002346
:10460800C4E902238E4A0023C4E904238D4BE361E5
:104618008D4B36E4102344F6206223700023C4E94E
:104628000223874A0023C4E90423884BE361884BAB
:1046380027E4012B7FF4E3AC022022F04BF828BBDF
:10464800802017F0A1FBDAE40132D2B2042A4FF03D
:10465800010321D900236374637C90F902002B4481
:104668000022019293F8C81123681B780C2505FBDA
:10467800036673780093774B53F82130022121F0B9
:1046880061FDA06000287FF4B7ACD9E7724990F8C3
:1046980004E0627C2B460D4601EB020C9CF8C8C175
:1046A800F445D1D1002BD7D06274D5E7013C7FF413
:1046B80037AD6A4B1A7E83F8244001321A76684B6C
:1046C800684C0021997041F2142102225A705A5004
:1046D8003B68654A13F4002318BF01231370634B2A
:1046E8005B78202B00F28F802023C4F86838604B59
:1046F800604E4FF47A72A3F84820D8F80030C4F816
:104708006C385D4B00251D704FF40060D8F8003000
:10471800C4F8703884F8745821F0DCFF68B10323BA
:10472800182790F902002A468DE888004FF40061A6
:104738004FF4965321F006FD3060336813B14F4BA8
:104748004F4A1A604FF4805021F0C4FF70B1032122
:10475800082390F9020000228DE80A004FF416534E
:104768004FF4805121F0EEFCC4F87808D4F878387A
:1047780013B1424B434A1A60434D2B6840F602027C
:1047880013420AD0414A03211170414A0121117094
:10479800404900220A8040490A801A0109D516F0CA
:1047A800FFFD3E4B1A68002800F0848042F48062C6
:1047B8001A604FF4806021F08DFF394C00B300225D
:1047C800032690F90200019200964FF4E1334FF46A
:1047D800806121F0B7FC206090B1DFF8C890013EFD
:1047E8006ED112AB009301963346324631462C48BF
:1047F80025F081FC002840F0BB80206821F08DFC6A
:1048080000232360C5E0402B4ED840236DE700BF4E
:10481800113F0208293F0208F0790020F1790020B1
:104828000143020848E8010024780020153E0208E8
:10483800DD44020831420208A06806001C5400202A
:10484800400D0300013F0208E93E0208A13E0208AC
:1048580089460208F0FE020828E5020858BF002031
:10486800E899002050440020AC5B0020E073002051
:10487800CC010010B8BE00204C85002010B20020EA
:10488800E0090020FC090020D4750020F04D00202C
:10489800252F0020C0850020C2850020947B0020A1
:1048A800C4C60020D4960020802B94BF80234FF4E8
:1048B80080731AE722F480627AE7206818F08BFF89
:1048C800206818F08EFF80460028F6D1FF21206866
:1048D80025F0F2FBD9F80070CDF8208007F5FA77BB
:1048E8008DF82480D9F800309F427FF678AF206891
:1048F80018F077FF0428F5D9206818F06CFF834674
:104908008DF82000206818F066FF8DF82100824697
:10491800206818F060FF8DF822008046206818F0A3
:104928005AFF8DF823000746206818F054FFBBF1A2
:10493800550F8DF824007FF452AFBAF1010F7FF4C0
:104948004EAFB8F1FF0F7FF44AAFAA287FF447AF04
:104958008DF8230008A825F0B9F987427FF43FAF06
:10496800002307228DF849308DF84A208DF84B3006
:104978009DF849309DF84B2084F844309DF84A3022
:1049880043EA0223A4F84630984B01221A705A7061
:104998009A70974B97481B682B60974B974E00214E
:1049A8000127602283F8147829F0EBFC944A00234D
:1049B8001360944A3046136020F080F812F092FC9D
:1049C8006428B8BF642070653946384620F0AEF8D0
:1049D8008D4B5A79994652B18C4B1B68642BB8BFE2
:1049E8006423C6F89C303946022020F09FF899F8D5
:1049F8000530874F022B25D13B689B0722D5B9F894
:104A08000030DFF8208298FBF3F39BB2642BB8BF29
:104A18006423C6F8E4300121032020F087F899F8D0
:104A28000530022B40F08E80B9F8020098FBF0F0B8
:104A380080B26428B8BF6420C6F82C010121042084
:104A480020F074F80121062020F070F801210820D8
:104A580020F06CF82B6840F602021A4214BF0121BC
:104A68000021072020F062F80121052020F05EF8DF
:104A780029680920C1F3C01120F058F839680A20C4
:104A8800C1F3C00120F052F8396846F2A813C6F8FD
:104A9800DC32C1F380010B2020F048F839680C2083
:104AA800C1F3401120F042F839680D20C1F300111C
:104AB80020F03CF829680E20C1F3404120F036F878
:104AC80029680F20C1F3802120F030F86988102070
:104AD80001F0010120F02AF829681120C1F3C06112
:104AE80020F024F829681220C1F3407120F01EF844
:104AF8000121132020F01AF80121162020F016F8C1
:104B0800444B1420197820F011F8082025F0AEFA4B
:104B180023680546CBB125F0B3FA002818BF05462F
:104B28002946152020F002F80021082016F057FD2C
:104B3800394A137863F07F03137023B0BDEC028BFE
:104B4800BDE8F08F12F0CEFB72E71D46E8E731238F
:104B580085F82738FEF7E0BC322385F82D38FEF7B4
:104B6800E4BC102385F83338FEF7E8BC2B4C2C49FD
:104B780004F67C0016F09EFE0D2384F8843804F6B3
:104B88007C001E2384F885380DF09EF8FFF7EDB9F8
:104B98002B2016F02FFDC4F8680420B11823837168
:104BA8000223C3710772012116F0B8FD0121D4F860
:104BB800680416F051FD3C2018F0D9FC00266B7DE6
:104BC8009E42FEF669AAAB7D012B7EF4A5A8FCF7F0
:104BD8000FFE00287EF4A0A8687512F062F8FEF7B0
:104BE8009BB80120FCF78EFFFEF756BC0CC70020CF
:104BF800145C002028050010583300206828002085
:104C08000000001024050010B6740020E002001017
:104C180034760020F073002068C80020504400203B
:104C2800F8E6020840420F002DE9F04F2DED028B07
:104C38009BB0CDE902010EF025FDC84B1B7805930A
:104C4800002B41F0CC86C64F3B68580541F1C7861A
:104C5800C44C637A002B00F06C81C34EE368326861
:104C6800D31A7C2B40F26581237CDFF830A3E26005
:104C7800013323744FF024094FF47A78AAF13005F0
:104C8800484614F0DDF85AF8040FAB8A09F1010917
:104C980008FB00F05FFA89F990FBF3F000B214F01A
:104CA800BDF8B9F1270FEBD1B04D302014F0C8F89A
:104CB80095ED450A28F066FA00B214F0AFF814F042
:104CC800B7F8237C990733D1E26841F288339A42D6
:104CD8001BD9D5ED427AFDEEE77A102017EE908ABF
:104CE8004FF0640914F0ACF898FBF9F528B214F009
:104CF80095F8212014F0A4F809FB158383EAE370E2
:104D0800A0EBE37000B214F089F8142014F098F8BE
:104D1800974BB3F904000A2390FBF3F014F07EF8E4
:104D28001C2014F08DF8002014F078F814F080F8A6
:104D3800237C5A0740F0D780022014F081F88D4B6D
:104D4800D8696423323090FBF3F000B214F066F8AF
:104D5800894B0320B3F9065014F072F8874B1B688F
:104D68005B074FF0050895FBF8F5ADB240F11C81E3
:104D780026F08CFE20B93B6813F0100F18BF0025F1
:104D880028B214F04BF83B68980739D5DFF8108241
:104D98007B4DB8F80020642353432A785200B3FBB4
:104DA800F2F3C3F3032747EA03239FB2062014F064
:104DB80047F838B214F032F894F82030012B40F05C
:104DC800F980392014F03CF8B8F9000014F026F8FE
:104DD800282014F035F86B4B18680A2390FBF3F081
:104DE80000B214F01BF8042014F02AF8664B9B89D3
:104DF800002B00F004811FF093FD00B214F00EF8B0
:104E0800624B1B68190640F11381614FDFF89481EA
:104E18003B6813F0020F1FD0112014F011F8B8F8F6
:104E280020005C4B4FF4F36510FB05F090FBF3F0AA
:104E380000B213F0F3FF192014F002F8B8F82000BC
:104E4800642210FB05F090FBF2F090FBF2F302FBFA
:104E5800130000B213F0E2FF3868D8F8103010F0F1
:104E6800020518BF64254FF0010018BF93FBF5F544
:104E780013F0E6FF28B213F0D1FF092013F0E0FF8A
:104E8800002013F0CBFFB8F8282098F80750B2F5A7
:104E9800967F09D9237C03F00F03072B04D842F22D
:104EA8000F75954228BF1546052013F0C9FF28B293
:104EB80013F0B4FF00230A930B933B689A0704D4BA
:104EC80094F82830012B40F09F80012384F8283083
:104ED800D8F808300A93D8F80C300B930AA81BF0BE
:104EE800A3F813F0A5FF237C282B22D135680023D3
:104EF8003C261720237413F0A3FF4EF66020B5FB61
:104F0800F0F3B3FBF6F006FB1030000200B213F02A
:104F180085FF182013F094FF4FF47A70B5FBF0F575
:104F2800B5FBF6F006FB105000B213F077FF13F054
:104F38007FFF94F82930002B00F09D80094E164D14
:104F4800344696F82A30042B00F29580DFE813F0F7
:104F58007400800044025C028A0200BF14B2002080
:104F6800D4750020484D0020D4960020BCB4002001
:104F7800580200100C750020B07200203CC70020B9
:104F8800252F0020405A0020667A00203476002021
:104F9800947B0020A0860100806967FF4C04001004
:104FA800787A0020987B0020B74B9889B0FBF8F0FE
:104FB80000B2E6E6B8F800206E235343152293FBAF
:104FC800F2F394F821201AB19BB22A7893FBF2F3FA
:104FD8003A209DB24FF0640813F032FFB5FBF8F7A2
:104FE80038B213F01BFF3B2013F02AFF08FB1750C1
:104FF80080B205300A2590FBF5F000B2E6E6A34B37
:10500800186880F31000F8E6DFEDA16A94ED057AE0
:10501800D4ED067A27EE267A67EEA67ABDEEC77A31
:10502800FDEEE77A8DED107ACDED117A10A856E7EE
:10503800984B10931193F9E7E06A18F0D2FBD0B1BE
:1050480000232363DDE9022301201AF0DDFF78E75E
:10505800D4E90E23DDE90201801A61EB030100297E
:1050680008BFB0F57A6F28D31AF0C0FFDDE9022334
:1050780000201AF0C9FF884C884B94F8AB20D3F86D
:1050880000900493002A00F01A83D4F8AC30002B67
:1050980000F0158394F8B030013B012B00F20F8328
:1050A8007F4E4FF001080027F7E17B1CE06A23637D
:1050B80018F091FB274487F84000E06A18F091FB4C
:1050C80010B1276B012FF0DD236B012BD3DD94F892
:1050D800403013F07F0240F0798194F841308A2BF8
:1050E80006D08E2B00F0F680DDE902230020ACE725
:1050F8006C4B1B681B06F7D5DFF8D4E1DFED6A7A45
:105108009EF8073084F85C30684BDFED696A93EDF0
:10511800457A9FED686A77EE277AF4EE667AF1EEC3
:1051280010FA48BFF0EE667AFDEEE77A17EE903A8D
:10513800F0EE087A27EE277A84F85930C7EE067A17
:105148001B1284F85A309FED5C7A77EE877AF4EE7A
:10515800667AF1EE10FA48BFF0EE667AFDEEE77A6D
:1051680017EE903A84F85B30544B1B689F070BD4BA
:105178002D2384F85D30524B33672C2386F8743026
:10518800DDE90223022060E79EF80630DEF8088099
:10519800404A98FBF2F7022B0CBF3323322305FB5E
:1051A80007814FF0060C84F85D30464BDEF80CA002
:1051B8000CFB01F14FF0640991FBF3F003FB1011B4
:1051C80091FBF9F186F84E10091286F84F109AFBF8
:1051D800F2F105FB01A20CFB02FC01EB81019CFB37
:1051E800F3F201EB810103FB12C352B293FBF9F313
:1051F80086F853301B1202EB810286F85430BEF950
:10520800203092B286F8512003EBC303120A86F8C5
:1052180052209B004FF47A7293FBF2F386F84930E0
:10522800C3F3072386F84A30274B1B8886F8553086
:1052380007EB87071B0A07EB870740B200EB8700DD
:1052480086F85630DEF8103093FBF9F91F4B09F554
:10525800FA7980B21FFA89F94FEAD87886F84C00B3
:105268004FEADA7A000A86F857901B8886F84B804E
:105278004FEA192986F84D0086F850A086F858900C
:1052880086F85E3077E700BF667A0020747A0020DF
:105298008096184B80969800484D0020D4960020A0
:1052A800180A0020347600200060EA46BCB40020CA
:1052B800000000000000C8420000F042947B00207B
:1052C8008A4D002040420F00445A0020465A0020D0
:1052D800987B0020C84BC9491B8884F8772084F83C
:1052E8007920DAB21B0A84F8932084F8943084F881
:1052F800892084F88A300A68D4F8A43094F8220007
:10530800D21A4FF47A7343439A420DD30B68C4F808
:10531800A43094F8A830013B012B9FBF102384F8D8
:105328007730022384F87930B54BDFEDB66A1A6816
:10533800B54B0A2192FBF1F284F89120121284F8FD
:105348009220B24A1B6892ED427A93FBF1F3C7EEC2
:10535800267A84F895301B1284F896309FEDAC7A43
:1053680077EE877A92ED457AFDEEE77A17EE903A76
:10537800DFEDA87A77EE277A23EAE373FDEEE77A82
:1053880084F88F301B1284F8903017EE903AF0EEC4
:10539800087A27EE277A23EAE373C7EE267A84F899
:1053A80097301B1284F898309FED9B7A77EE877AB6
:1053B800FDEEE77A17EE903A23EAE37384F8993022
:1053C800964B23672C2384F87430D9E67F2B3FF45F
:1053D8008BAE1AF00BFE87E6D4E90E23DDE9020155
:1053E800801A61EB03010B4600210246994241F203
:1053F800873008BF9042BFF43EAE002384F8A9303E
:105408000320DDE9022334E6DDE90223002B08BF8F
:10541800B2F5FA6FFFF42FAE94F8741094F8A9203F
:1054280094F8AA3051B901331146E06A84F8AA30D9
:1054380016F00CF8DDE9022304201AE6216FE06A71
:10544800097801330A4484F8AA3084F8A92015F0B1
:10545800FDFF236F0133236794F87430013B84F810
:10546800743008E6D4E90E23DDE90201801A61EB05
:105478000301002908BFB0F5FA6FAAD2FBE5D4F8FA
:10548800AC0018F0A8F9049A83B27E2B12681FD1D9
:1054980084F8B17084F8B2703770D4F8AC0018F0A2
:1054A800A0F901460028EAD194F8B730002B00F0A3
:1054B8008780637884F8B700302B40F08180A37828
:1054C8005E09012E49D084F8B8001AF023FB77E072
:1054D8003278002AE1D194F8B11089B91B2B07D191
:1054E800D4F8AC0018F07DF940BB84F8B280D4E75A
:1054F8000D2B23D184F8B1802370A4F8B410CCE725
:105508007D2B02D184F8B680C7E794F8B6E0BEF1E7
:10551800000F04D080F02000C3B284F8B6204A1CE3
:10552800D2B2092A84F8B12063540AD1B4F8B4205D
:10553800C2F1FF02934201D184F8B78086F8008057
:10554800ABE7082AA9D8B4F8B400034403EB132343
:1055580003F0FF03A4F8B4309FE703F00F0013F043
:10556800100321D02E4BE7782279A4F8C420A4F8A0
:10557800C8107A40D919C4F8BC30C4F8C01084F8EF
:105588000C2184F8B860C73B94F80C21254F002102
:10559800D4F8BC60D4F8C050B5421AD131BBBB4274
:1055A80046D184F80D010BE094F8B82042B194F884
:1055B8000D21013202F00F0282421AD084F8B8306D
:1055C800194E94F8B20094F8208294F821320022FF
:1055D800EDE213F8011B06F1010EBB4282EA01025B
:1055E800C4F8BCE031704FF00101D1D384F80C212C
:1055F800D5E70E4BC8E700BF787A0020D496002084
:10560800405A00200000C842747A0020BCB4002030
:105618000000FA430060EA460000F042BD4D002059
:10562800144E0020504D002004E802084B4D002085
:105638001A7894F80C319A424FF0000284F8B82096
:1056480003D0B4F9C41001203FE71548D4F8BC30A2
:10565800C4F8C030C4F8BC0000F5AA7300F15406C1
:1056680000F144011038C4F81061C4F81431A4F8EA
:105678001821A4F81C2109F03FFC013006D1D4F808
:105688001021511CC4F8101102211170D4F81021F6
:10569800C4F814210123C4F8106184F820328FE77C
:1056A800144E002004990968A1EB0901012940F270
:1056B800DE810AB184F82132002384F8B23094F8EC
:1056C8002432002B00F0A681D4F82832002B00F0F9
:1056D800A181049BD3F800A0D4F82C32AAEB0303D1
:1056E800632B40F29781D4F8302294F83432D65C98
:1056F800F20724D510A81AF0C3FA109BB54F5A1C0C
:10570800109241221A700A25B7F9021091FBF5F19F
:1057180010A889B216F080FEB7F9001091FBF5F1D8
:1057280010A889B216F078FEB7F9041091FBF5F1CC
:1057380010A889B216F070FE10A81AF083FAB30701
:1057480047D510A81AF09CFAA34BDFF89C821D6875
:1057580015F0800500F0008498F80630002B00F062
:10576800F783012B00F0F683022B0CBF03250025DD
:10577800D8F80810D8F80CB0B8F92090642399FB31
:10578800F3F9964B93ED428A109B1AAF5A1C47F8CF
:10579800282D47221A70384616F02AFE59463846F0
:1057A80016F026FE109BBDEEC88A5A1C1092384689
:1057B80083F8009018EE101A16F01AFE98F80730C1
:1057C80045EA8305109B5A1C109238461D701AF042
:1057D80039FA370723D510A81AF052FA109B804DD2
:1057E8005A1C10924F221A70296810A816F000FE51
:1057F800696810A816F0FCFDA96810A816F0F8FD55
:10580800109B5A1C109201221A70764B1B68134089
:10581800109A511C109110A813701AF013FAB006C0
:105828002ED510A81AF02CFA1DF028F8109B5A1C37
:10583800109258221A706C4B0546198D10A816F054
:10584800EBFD109B85F001005A1C10921870109BFC
:1058580094F83522591C10911A70644B1A78109BD1
:10586800591C10911A70109B5A1C109200221A7021
:1058780094F8353210A8013384F835321AF0E2F979
:1058880071076DD510A81AF0FBF9594B1B68DA059A
:1058980000F16683DF0400F16583D80600F16483B4
:1058A800990600F163831A0700F1628313F0440F2D
:1058B80040F06083DF0700F15F8313F0020F0CBF35
:1058C800012503254B4B1F684B4B1B79C7F38007FA
:1058D8000BB147F00207109B5A1C109253221A7002
:1058E800464B198801EB810101EB8101890089B2DE
:1058F80010A816F091FD424B196881F3100189B286
:1059080010A816F089FD3F4B1A88FE23534340F236
:10591800FF3293FBF2F3109A511C109113702E4B27
:105928001B6813F020030ED0374BDFED386AD3ED38
:10593800047AF8EEE77A87EEA67AFCEEC77ACDED20
:10594800067A9DF81830109A511C10911370109B0C
:1059580047EA85055A1C109210A81D701AF072F9B2
:10596800F60629D510A81AF08BF9109B5A1C10922C
:105978004E221A70109A264B501C197810901170EC
:10598800109A5978501C10901170109A5979501C1F
:1059980010901170109A1979501C10901170109A6B
:1059A8009978501C10901170DA78109B591C10913E
:1059B80010A81A701AF046F994F83432C4F82CA2D8
:1059C80001330A2193FBF1F201FB123384F83432DC
:1059D80020E000BF5802001034760020BCB400203C
:1059E80070C70020947B0020987B002088C7002087
:1059F800C07200203CC700206CC80020787A0020C4
:105A0800747A00203E5A0020787500200000C842B1
:105A1800485A002094F836320693002B00F0678627
:105A2800D4F83832002B00F06286B54DDFF80CA3AD
:105A3800D4F8380217F0D5FE002800F08B83D4F88C
:105A4800380217F0C8FEEA78002306462B700A2AA7
:105A580000F2A282DFE812F0920292020003100321
:105A6800090317031E032A033A0350035003B8F12E
:105A7800000F65D00AB184F82132D4F81031A14A58
:105A8800934294F8223239D1591C84F82212B4F97D
:105A98001C1103F00F0343F010030029B8BF43F0B3
:105AA80020038DF84030D4F814319B1A94F818214B
:105AB8008DF84130534084F823320DF14201D4F877
:105AC800147194F8230200230DF14605A94228D247
