:020000040800F2
:100000000000011059B8020817360208559F02086F
:1000100015B9020815B9020815B902080000000058
:10002000000000000000000000000000153602087B
:10003000133602080000000011360208F9C2010858
:1000400015B9020815B9020815B9020815B9020850
:1000500015B9020815B90208BF6A0108C76A010884
:1000600015B90208C56A0108C36A0108E14400081D
:10007000D1440008C1440008B1440008A14400086C
:100080008D4400087944000815B9020815B9020822
:1000900015B9020815B9020815B90208C16A0108A4
:1000A000BDC0010815B90208ADC0010815B90208A4
:1000B000FDC00108EDC00108DDC0010815B9020846
:1000C00015B9020815B9020815B9020815B90208D0
:1000D00015B9020875450008694500085D45000826
:1000E000BD6A010815B90208553A020815B9020897
:1000F00015B9020815B9020815B9020865440008C7
:1001000015B9020815B90208CDC0010815B90208D1
:1001100015B9020815B9020815B9020815B902087F
:10012000514400083D4400082944000815440008D3
:100130000144000815B9020815B9020815B90208EA
:1001400015B9020815B9020815B902088930020864
:10015000ED430008D9430008C543000815B902085B
:1001600015B9020815B9020815B9020815B902082F
:1001700015B9020815B9020815B9020815B902081F
:0801800015B9020815B90208C7
:100188002DE9F04F2DED028BC64DDFF8B883C64F31
:100198000026A7B04FF480623146284688F80060F0
:1001A8002CF01BFEC14BC5F80434C5F80064C5F833
:1001B800086404F06FFBBE4BFB60BE4BBE485A6F31
:1001C800BE4ABA605A6B22F080025A635A6F42F0F4
:1001D80080725A67196BBA4A0A431A635A6B5A6390
:1001E8009A6B9A631A6C42F05B5242F47B1242F4A7
:1001F8001F6242F00F021A64596CB24A0A435A64E9
:1002080026AC01238DF85F3048F2FF7344F8403D77
:1002180021464FF6FF798DF85C608DF85D608DF8AA
:100228005E6025F047FB2146A748CDF8589025F099
:1002380041FB2146A548CDF8589025F03BFB2146C7
:10024800A34825F037FB2146A24825F033FB214679
:10025800A14825F02FFB2146A04825F02BFB21467D
:100268009F4825F027FB21469E4825F023FB204682
:1002780025F0DDFA9C4A169B9C49B3FBF1F382E812
:1002880048009B4AD36843F08073D360994A136847
:1002980043F001031360984BC5F80C641B68C5F85C
:1002A80010644FF47A72B3FBF2F3013BB3F1807F31
:1002B80007D2924A5360F02387F8233007239660C9
:1002C80013608F487C498F4A824F4FF0010E30F8F7
:1002D800026F002346FA03FC1CF0010F18BF0EFA48
:1002E80003FC03F101031EBF1160A2F804C00C3225
:1002F800102BEFD101F58061B942E8D1824B1B7810
:100308007E2B00F0DE8318F04EFC18F0BFF87F4F0C
:100318007F4E18F005FA7F4BFA79DA710021DA730B
:10032800DA75084616F06AFA98F80030BA7943F098
:10033800010388F80030784B1A70784B00201B684E
:100348003360B846764F25F08FFD4FF0170900232C
:100358004FF0020A57F823005C1C38B180F8069069
:1003680080F807A00472012116F0DEFA032C234658
:10037800F0D1002025F078FD4E4A6A4C536C6A484B
:100388006A4FDFF8C49143F480435364002140224C
:100398002CF023FD4FF0FF33C5F854340021C4F886
:1003A8000330012016F02AFA4FF4FA701BF095FF7B
:1003B80004F10800F02200212CF00FFD0024E1597F
:1003C800002359F83320914209EBC30040F07F83A2
:1003D8000079103425F0EAFCA02CF0D1534C04F13C
:1003E800A0092746387916F014FA103717F8082CA0
:1003F80017F8091C16F05CFAB945F3D1DFF84C91EF
:10040800DFF84CB1D6F800A004233022002148467A
:1004180085F84C352CF0E1FC142389F800300127CD
:10042800022389F8243089F818709BF80090484610
:100438001CF04EFA3E4BDFF81CE1CDF808B04FEA4D
:10044800C902991891F8A9C08EF800C091F8AAE0DD
:10045800384981F800E0817A09B9CAF3401785F86C
:100468004D75002940F0398333490AEA010100310A
:1004780018BF01213148C5F8501540F2DC5E002153
:1004880020F811E001310829FAD1002F40F0278324
:10049800A9F11709B9F1020F64D828F0DBFF284B3E
:1004A8001B7859E0C02F002000ED00E00566010828
:1004B8000005FA050038024000000240000000086C
:1004C800FF916700335F0700000402400008024004
:1004D800000C0240001002400014024000180240C4
:1004E800001C024000200240F079002040420F002A
:1004F800F0ED00E0001000E00000002010E000E057
:10050800E2CE0208F879002000000E08D673002019
:1005180030730020D42E0020F49F0020205B0020A0
:10052800B4EB020814340020D4330020ECCE0208C7
:10053800E4CE020846C00020200010003C590020EC
:1005480044C0002060C500200CEE020800B800205E
:100558001470002045C0002023B10123C5F8503590
:1005680085F84D35C94BCA489FEDCA7A03F1600733
:10057800B3F90820B3F90610891A07EE901AF8EEB5
:10058800E77AB3F90410C7EE876A521A0C339F4210
:1005980000F1080007EE902AF8EEE77A40ED026ACB
:1005A800C7EE876A40ED016AE2D11CF0A3F9202268
:1005B80000210EA82CF011FC029B18781CF088F979
:1005C80000B1007A0E90012028F0C8FD18B100880B
:1005D800003018BF012032688DF84200C2F3400392
:1005E8008DF84530C2F380138DF84730AA4B19783F
:1005F8004F1E7B427B418DF83D30C2F3C0338DF8EE
:10060800403012F4006304D0A44B9B7A581E434236
:1006180043418F1E8DF84130C2F300438DF84830B6
:100628007B427B41A1F1030E8DF83E3095F84D35A4
:10063800DEF1000141EB0E01003318BF01238DF8F4
:100648004930C2F300538DF84A30954B8DF83F106E
:100658001988ADF84E1093495B88ADF84C300B7A89
:100668008DF85030581E02288CBF00200120D2047B
:1006780048BF8D4A8DF8460048BF9288C888898847
:10068800ADF8541048BFADF85420042BADF8520013
:1006980008D100274FF480508DF8467016F0A0FC62
:1006A800ADF8547033688148C3F300728DF83C206C
:1006B80098F80A2085F894251D0148BF00234FF0BB
:1006C80058024FF0000144BF8DF849308DF84A3088
:1006D8002CF083FB4FF00009744D4F469DF84830CD
:1006E800002B00F037822268714B9A4240F0328228
:1006F80012212B786A78ADF85C1044F20101ADF84C
:100708006430ADF85E10ADF86070ADF86220032378
:1007180016A8ADF8663016F057F801370A2F04F11D
:100728001004DBD1029B634F1D7800242846173D37
:100738003C701CF0CDF8022D00F20C84DFF898E133
:100748000EF1C00C0EEB0403D3ED007AF5EE407AFF
:10075800F1EE10FA40F0F1833368DB0400F11684FF
:100768001CF09EF89DF84630534C13B9012384F8C9
:100778007438524D0021022016F040F82B782320BF
:1007880043F004032B7016F044F80122C4F87808EB
:1007980084F87C28029540B1112282710222C2712C
:1007A80000220272012116F0BFF800201BF0B8FDEC
:1007B8003F2003F077FF3E2003F074FF404D414E89
:1007C8001D274FF00E08B542C0F00284002016F035
:1007D80051FA012016F04EFA022016F04BFA0020CA
:1007E80003F074FF00230593374B1B689E0744BF33
:1007F80094F87D288DF814201D0444BF94F87E28B1
:100808008DF81520180507D5244B9B7A012B04BFBA
:1008180094F87F388DF816302C4B2D481B7803F050
:10082800FD03012B04BF94F880388DF817300021A0
:100838001E222CF0D2FA0023264905A81D461A5C70
:10084800561E032E94BF41F8232041F8235001334C
:10085800042BF4D1002351F82320012A01F09485B8
:100868000133042BF7D1002351F82320022A01F089
:1008780090850133042BF7D1002351F82320032A54
:1008880001F08C850133042BF7D127E0C8C0002084
:10089800143500200000FA43DCB60020A2730020C3
:1008A800285A0020F26F0020EC6F00206C590020BD
:1008B80000080040A06F0020C02F002060C5002065
:1008C8007C410308804103083073002088740020AD
:1008D80041380020A8740020B436002000231A46AE
:1008E80051F82300042808BF41F823200133042BC2
:1008F800F6D1874F874DDFF828924FF00F0A4FF057
:10090800000B07F5BC78A87938B395F9076015F09E
:1009180080FF28B106238371002380F807A00372A3
:10092800132116F001F8A979002318F8130088425A
:100938004FEA430240F05E83BB1893F879312B727B
:10094800182303FB0696F3696B725A1C0723EB7294
:100958000123F261AB7233769B440AF1010A5FFA14
:100968008AFABAF1130F05F10605CCD1BBF1000FD5
:1009780040F04683684B5D6F15F0805501F0138594
:100988001FF03EF80023C4F8C038644E644B4FF0A3
:10099800FF321A65336899032ED5C8201BF09DFCD9
:1009A800AE200CF056F808B10AF0D6FC5D4D84F87C
:1009B800C408C8201BF091FC5B49284616F080F853
:1009C800082384F8D0382846152384F8D138C4F889
:1009D800D8580CF043F8002384F8DC38012384F855
:1009E800DD381BF025FC48A3D3E9002312184B413E
:1009F800C5E906230AF055FD33684C4D4C48DFF82D
:100A080050B11A0642BF4B4B4B4A1A6000211022C4
:100A18002CF0E3F9002723202F621BF05EFC26ABA5
:100A2800012203F8857D752105F1180002F084F98B
:100A3800A846002800F0DA83404B2B64404B6B64D7
:100A4800432385F84C30012206AB394605F11800DE
:100A580002F072F99DF8183003F07E038DF8183013
:100A6800002840F03A869DF8133003F07E03682B87
:100A78008DF8133040F058860622022388F8393062
:100A8800114616ABD8F840502E48A8479DF85D305F
:100A98009DF85B209B00520002F0020203F0040361
:100AA80013439DF8592002F001021343DAB2002BD8
:100AB80000F02A86012A40F01A86002388F83A3086
:100AC800CFE316F059FB00287FF421AC1BE4013377
:100AD8000E2B7FF476AC00207BE40121CAE41A4493
:100AE800194B92F8A810D2F8AC201970002A3FF4DC
:100AF800CFAC164800238B42BFF6CAAC52F823701D
:100B080040F823700133F6E7404B4C00000000002A
:100B1800E4CE02084138002000380240307300203B
:100B280000000020883800207CD00208F4730020E0
:100B380004040010C4740020225A0020412D00082B
:100B48000F2E00080C74002044C0002047C000206D
:100B5800C02F00209DF83F30002B40F09A809DF870
:100B68003D301BB1E368980700F195809DF83E3051
:100B780013B1E36803F001030E9A002A40F08D8058
:100B88009DF84910E26811B1110700F16F819DF8D5
:100B98004A1011B1D00600F1698112F0040F40F03B
:100BA800F280002B3FF4B9AD012BDFF814A340F01D
:100BB8008D800023FF229DF850008AF89835CAF8E6
:100BC8009C35CAF8A035CAF8A435CAF8E8358AF8B9
:100BD800EC258AF8ED258AF8EE358AF8EF358AF89B
:100BE800F035AD4A1A44D26812F0240F04D0AA4A4C
:100BF8009958226891425AD01033A02BF1D14FF066
:100C080000088AF8F485CAF80046207915F001FE34
:100C180028B1022383710123C37180F80880E17928
:100C280015F082FE204627F035FE9C4A9C4BCAF8F8
:100C380004364FF000089B4BCAF80836111F2046AF
:100C4800CAF80C861BF05EFA42466179206815F0F6
:100C5800DBFCAB78ADF8607005EBC30320225A7259
:100C68002B796A78ADF86220013313212B71ADF826
:100C78005C102B78ADF864304FF48041ADF85E100D
:100C8800ADF8668016A815F09FFDAB780133AB7000
:100C980043E5002370E702236EE7013A012A80D872
:100CA800E268510600F1E28012F0200F77E7431E58
:100CB800032BA4D8DFE803F0020806080C227A4BBD
:100CC8001A719CE75422FAE71522F8E75FFA89F8C7
:100CD8001C2303FB08A300224FF0010B83F8F62521
:100CE80083F8FE2583F8F58583F8F4B5C3F8004644
:100CF800207915F08EFD08EB0B03DBB220B180F8EC
:100D080006B080F807B00372E17915F00DFE2046B1
:100D180027F0C0FD1C2101FB08F18A44634BCAF887
:100D28000436634BCAF80836624B4FF0000801F1ED
:100D3800140210311A4419442046CAF80C861BF0D4
:100D4800E1F942466179206815F05EFCAB78ADF8B0
:100D5800607005EBC30340225A72EB786A78ADF8ED
:100D6800622001331321EB70ADF85C102B78ADF8DD
:100D780064304FF4804109F10109ADF85E10012398
:100D8800ADF866307EE795F801A0BAF10B0F0FD9E0
:100D980012222B78ADF85C2044F20102ADF86430E1
:100DA800ADF85E20ADF86070ADF862A00123AFE445
:100DB8009DF850B0BDF852E0BDF854309DF83C00A5
:100DC8000BF1FF31032940D8DFE801F043373B023C
:100DD800DFF8F08015210023374A00904A43204667
:100DE800B2FBFEF292B215F0C5FD344B43F82A006F
:100DF8009DF84630C0F80C807BB3AB78192205EB20
:100E0800C3035A72AA786B78ADF860700132132167
:100E180005F8323005EBC2020133DBB25460ADF89D
:100E28005C102A786B704FF48041ADF86230ADF8F1
:100E38005E10ADF864200223A2E7DFF88C8015214C
:100E4800CAE7DFF888805421C6E7DFF884800121EB
:100E5800C2E7DFF880800C21BEE7AB78BBF1040F56
:100E680005EBC3030CBF0D220922CAE795F80080E1
:100E7800B8F1070F30D912226B78ADF85C2044F234
:100E88000102ADF86230ADF85E20ADF86070ADF8E3
:100E9800648002233CE400BFECCE0208C835002081
:100EA800D960010829620108000000202D670108A7
:100EB800B1600108B435002040420F00A46F002043
:100EC800C02F00207162010831640108FB6301082A
:100ED800616201085D640108BDF84C20B94991FBC5
:100EE800F2F29DF83C10BDF84E30009192B201210B
:100EF800204615F03FFDAA78B34BADF8607001327B
:100F080005EBC20103EB88080A234B702B7805F820
:100F180032304C6001331321DBB26A78ADF85C10D3
:100F28004FF480412B70ADF86430C8F8D406ADF8A2
:100F38005E10ADF86220032322E70FCB04EB0C050B
:100F480085E80F003B7810340133C02C3B707FF4E8
:100F5800F9AB01E49D4A437A5278D0F804C0934231
:100F680028BF13463B70BCF1000F3FF4F5ABDFF828
:100F78006082DDB2AC42BFF6EFAB230103EB080E93
:100F880063440FCB01348EE80F00F3E73978012969
:100F98007FF6E6AB8E4A131D02EB01121432F6EE11
:100FA800007A103393423FF4DBAB13ED037A27EE5C
:100FB800277A03ED037A13ED047A27EE277A03EDF7
:100FC800047A13ED027A27EE277A03ED027AE8E72E
:100FD8002B78022B0BD1E87815F01BFC38B10022D6
:100FE800877180F807800272202115F09DFC043576
:100FF800FFF7E9BB0133102B7FF497AC00239EE485
:10100800744D4FF000082B7C002B00F0A8804FFA9D
:1010180088F36879039324F0C9FE28796E4E24F08A
:10102800C5FEA86824F06AFB16A824F02BFB2B68E1
:101038006A4AA8684C331793EB6816930A2303FB94
:10104800082318936B691A930022022BB4BF134626
:101058004FF480631C934FF400631D934FF40053C7
:101068001E934FF480731F9316A94FF400331992FF
:101078001B92209324F017FBAA68136843F001031E
:101088001360574B564A5B6823F4733323F4477352
:1010980023F0030343F4403353602A6869695368B3
:1010A800012923F04073D4BF0020012023F480736A
:1010B80043EA0023536090684A4B034043F002031D
:1010C8009360D36A013923F47003C9B243EA01512A
:1010D800D16201234FF01F0C4FF0070AB17A51B3C8
:1010E80096F907100398814225D1317AF77A03F1EE
:1010F800010E09295FFA8EFE3AD9A1F10A00D2F849
:101108000C9000EB40000AFA00FB29EA0B0907FAE9
:1011180000F040EA0900D060062B36D8013B506B3E
:1011280003EB83030CFA03F720EA070001FA03F341
:101138001843506373462C490636B142CED19368A2
:1011480043F400739360936843F4807393609368E7
:1011580043F001039360936843F08043936008F180
:101168000108B8F1030F05F118057FF44CAF01E44D
:10117800106901EB41090AFA09FB20EA0B0B07FA8F
:1011880009F747EA0B071761C6E70C2B0CD8073B92
:10119800106B03EB83030CFA03F720EA070001FA4C
:1011A80003F318431063C5E70D3BD06A03EB8303D1
:1011B8000CFA03F720EA070001FA03F31843D06298
:1011C800B8E700BF40420F00C02F00206C59002034
:1011D80074370020080000204138002060380020C3
:1011E80000230140FDF7FFC059380020286A10B9D4
:1011F800142015F00EFB94F8E838C8F820008BB9D5
:1012080020B1142282710E22C27103720921D8F80A
:10121800200015F089FB03219F4815F0B0FC01233D
:101228008BF8E83880226B219C489C4F01F03EFFE8
:10123800052596201BF051F816AB0122752138467A
:1012480001F0C6FF9DF85830712B00F0448200F27F
:101258002A82122B00F03982702B00F03A82013D6D
:10126800E7D198F83920D8F84830C4F8EC38042A7F
:101278008B4BC8F83C304FF0000488F8384041F0F8
:10128800A680884BC8F80030874BC8F80430874BD5
:10129800C8F80C30864BC8F82430042388F8383056
:1012A80007240923ADF85C304FF48043ADF85E3075
:1012B80016A80023ADF86040ADF86230ADF8643090
:1012C800ADF8663015F080FA002C34D0794B1C70DC
:1012D800794C012028F0ECFFE278A37988F83430C3
:1012E800002A00F02782A278002B14BF4FF47A73EB
:1012F8007D23511E88F836105343704F70483B6069
:10130800D8F80030984723780BB188F838306D4DFD
:101318006D4B2B606B60AB60E379002B40F00E8265
:101328006389002B40F02682E389002B40F03A8243
:101338001EF0C6FC10B901201BF006F8002104209D
:1013480015F05CFA029B029A1B78604C43F002038A
:101358000020137024F088FD0A2524F077FD192059
:101368001AF0BBFF63689B0302D401201AF0D8FF70
:1013780019201AF0B2FF013D00201AF0D1FF15F034
:10138800FF05EAD1284624F06FFD1BF00DFA504BFB
:10139800DFED507A1B7C504F00EE103AB8EEC00AD1
:1013A800002420EE270A14F003FB4C4B83ED000ABF
:1013B8004B4B1C605C609C604A4B1D704A4B1D7017
:1013C8004A4B4FF07E521A60494B1C60494B1C60D7
:1013D800494B1C6028F01AFE2022FF2138462BF0CA
:1013E800FCFC4649464BD1F800E03D7001221EF056
:1013F80002051A7008EE104A384606D07A700222A2
:10140800BA7004221A701A22FA7031684F0204D492
:101418001A78541C1C70142484541A780427541CF9
:10142800E4B287541EF00A071C7009D04FF0050C6F
:1014380000F804C0D41C0232D2B21C7006248454B2
:101448008C0604D51A78541C1C70072484541EF08A
:10145800040F2C4C04D12268D20610D50A060ED5EA
:101468001A784FF0030E00F802E002F1020E013282
:10147800D2B283F800E04FF0180E00F802E011F045
:10148800800201D00A2F3FD02768FF0651D5002DD2
:101498004FD0002A4DD037E0003001400C740020B6
:1014A800ACD00208B93300084727000833270008E2
:1014B80090C1793D44730020C859002004040010ED
:1014C800F4730020000000103B460108E8BF00202C
:1014D800AC03001035FA8E3C46C60020FC03001011
:1014E8007803001044030010F40200108C0300106D
:1014F8009003001094030010980300102C73002030
:1015080066C60020F0BF00201A7809258554551CAE
:10151800EDB208274755951CEDB213274755D51C42
:10152800EDB215274755551D0432D2B21D70162548
:1015380085542568EC0610D51A780A248454541C5E
:10154800E4B20E270755941CE4B21B270755141D57
:101558000332D2B21C701C2484546A0604D51A784B
:10156800541C1C70192484541A78CF0302F1010406
:101578004FF00B058554E4B248BF02321C7042BFDD
:101588001A700C2202551A780F25541CE4B285549F
:101598004D051C7006D59D4D2D7A1DB102321A706D
:1015A800102202550A0304D51A78511C197011210A
:1015B80081541A78964F974DDFF89092DFF890A2F1
:1015C80017218154511CC9B212244454911CC9B228
:1015D8001D244454D11CC9B21E244454511D1970F1
:1015E800131DDBB21F22C25400214FF422728A4815
:1015F8008A4C2BF0F2FB20F095FE894A8948DFF8E7
:1016080054C2DFF854E2256200230021138093704E
:10161800D370B7F91820C4F81C90C4E90401A8468F
:1016280023768BF8F03861467546DEF800002CF812
:10163800132000F596704AF823000133122BF4D1D9
:101648003368DB0458BFB7F91E20CA80764A02F116
:1016580050001378BBB992F802E0D3789E4512D2B5
:10166800BEF1000F00F0B4800EF1FF3E0EEB8E0EBF
:101678000EEB8E0E0EF5617392F801E00EF1040E7A
:101688009BB221F81E3004329042E2D139784B1EC9
:10169800052B00F2EF80DFE813F0A300A300E500BC
:1016A8005903ED006803982B11D0AF2B7FF4D7AD09
:1016B800092388F83930432388F84C305B4BC8F845
:1016C80040305B4BC8F84430CBE50823F1E70C23E6
:1016D800EFE70523EDE70623EBE7682B7FF4C3A9C3
:1016E800012385F839301D2385F84C30B9E5022AE5
:1016F80002D10123FFF7E2B903F00303032BF8D06B
:1017080003201AF021FEACE509ABD8F8405049484F
:1017180001220C21A8479DF8243013F00F03EFD0C5
:10172800042BE6D1FFF7C9B9702B04BF042388F84E
:10173800393096E5A38888F83620DEE5A9463E4B81
:1017480049F80C3B9FED3D8A4FF0000805F1600A0F
:101758001C2000FB08904AF828000023B0EE480A35
:101768003A68E17908F1010814F02AF9B8F1030F91
:10177800EED1D5E5DFF8E4902F4B6B604FF0000811
:1017880009F1540A1C2303FB08904AF82800A3898E
:101798006289396808F1010814F080F9B8F1030F7B
:1017A800F0D1C1E5DFF8B880234BAB604FF01C0ADD
:1017B800002508F154090AFB058049F82500238A09
:1017C800E2893968013514F069F9032DF3D1AFE5E1
:1017D800013303EB830303EB830303F561734BE7E7
:1017E80044F620620023C4E90223012399422376A8
:1017F800134B07BFE36108221022E3610BBF114BB3
:10180800114B22702270236234E000BF244B002069
:10181800DCB6002099180208A494002008B700201C
:1018280064C50020A0860100ACC50020D93100089D
:10183800B53000080C740020F5450108F304353F65
:10184800ED180208E51A0208BB1802089D180208DC
:10185800B4380020AA77002060B500206C00001082
:10186800CC00001026F0FCFD20B93870C4F81C909C
:10187800C4F8208033689C0040F1B585C64BC74941
:1018880093F85430C6488BF83C3915F019F91F20E5
:1018980014F0BFFFC34C206028B1122383710E23BC
:1018A800C37100230372092115F03EF80221BE48D6
:1018B80015F065F90221BC4815F061F9206814F0AB
:1018C800CFFF0221002002F073FC206814F0CDFF46
:1018D8000321B54815F053F99BF83C39B34A8BF806
:1018E80050394FF40051002322F813100133B3F597
:1018F800F07FF9D1AA4CAE4F204608F0DDFA204619
:101908003C600BF0ABF8AB4BAB4A1B68386803F094
:101918000403137015F029F9A84AA94916A815F067
:10192800B1FE16AB06220521386815F0F5F8072236
:101938001146A44B386815F0EFF8A34B3868082215
:101948000B2115F0E9F809220B21A04B386815F096
:10195800E3F8386803685B6A98471AF069FC9C4B9F
:1019680000F5741000F5106018600023994A1C46B1
:1019780099189C546833B3F5D06F4C70F8D14FF474
:10198800005027F035FCC0B10323427990F90200DA
:101998000093914B019453F822304FF400510022E8
:1019A80027F066F98D4B186038B18D4B0020002167
:1019B800C3E900018B4B01221A703368180621D540
:1019C800894C8A4A8A4B636000278A4B5760976024
:1019D8002360677408F0D8FD2B6823623846E774E3
:1019E80008F036FE2368844E1B780C225A43B25CFA
:1019F800022A40F0C981012008F02AFE00210520B2
:101A080014F0FCFE7D4B7E4A7E4EC3F82421002450
:101A18004FF0010883F84D4783F8604783F84C4737
:101A280083F800805C709C70DC701C71DC711C7227
:101A38005C729C725C7483ED4A8AC3F82C2103F2B1
:101A48006C7383ED008A19F0ABFA33686E4FD903D3
:101A58003C7040F1E08108F0FBFC40F6A8422146CA
:101A68006A4887F800802BF0B8F9694B03F108023F
:101A780098462701D1190879282840F0C2813B44AB
:101A8800644C9B68C4F8C43814F0C3FEC4F8C80892
:101A9800002840F0248208EB07032A211A7C14F05E
:101AA80007FFD4F8C4185C4A002352F83300814277
:101AB80002EBC30E40F01A829EF80400DFF864B10E
:101AC80024F074F9D4F8C4A8DBF80090BAF8003010
:101AD80023F001031B041B0CAAF80030504602F047
:101AE80003FD4E4BB9FBF0F0984289BF0133002348
:101AF800B0FBF3F303F1FF335A1C0321B0FBF2F000
:101B0800474AB0FBF2F082B2B2FBF1F25100A4F8FE
:101B1800CC1826A9D94621F8803D4FF0000B079034
:101B28005046A4F8CE28ADF820B0ADF81AB08DF81C
:101B380022B024F06AFA6023ADF8243008EB0703DA
:101B480047449B7B7F7BADF826B05A0757BF0122DD
:101B58000422ADF826204FF480724FF0000A03F0FB
:101B68000203ADF828B0ADF834B04CBFADF828206A
:101B7800ADF83420394609AAD4F8C408ADF8303095
:101B8800ADF832B0ADF836B0CDF82CA01AF0A2F905
:101B98003946D4F8C40847E0BA5A0020B0D0020841
:101BA80000390020185B0020003C00401439002058
:101BB8004CC40020D077002064C400209807030894
:101BC8009E070308AF070308BD070308C8070308F3
:101BD80074C4002098B80020E0EA0208A07200202F
:101BE800D87200209E720020C47400203473002034
:101BF800DEB70020225A00208CEA02082C97002029
:101C0800000080BF3073002091C40020D43C002025
:101C1800E4CE0208B84000200CEE0208FF356E0141
:101C280000350C000000002024F0C2F9D4F8C438B4
:101C3800B3F844206FEA42426FEA524292B2A3F8E4
:101C480044201A8892B242F080021A801A8C01212C
:101C580001FA07F080B292B222EA00021A841A8CC2
:101C680092B2104318841A88A34892B20A431A8081
:101C7800A24B026BC4F8D038D9F828311A43026352
:101C8800162289F8302189F831A1026B13430363C6
:101C98009B4BC9F8203116A899F82531C9F82CA111
:101CA8008DF859108DF85B108DF858308DF85AA0C2
:101CB80024F0E6F8D4F8D00823F020FDD4F8D008B2
:101CC800036823F00103036023F018FD16A823F02E
:101CD800D9FCD4F8C438D4F8D008CDF86CA0343383
:101CE8003B44179340F22A331A934FF480631C93B2
:101CF8004FF080631693834B1893402319934FF446
:101D080080531D934FF480431E9316A94FF440331C
:101D18002093CDF87CA023F0C6FCD4F8C4180C2F6F
:101D280098BF08EB47088A8998BFB8F8023292B280
:101D380088BF53461343D4F8D0288B81136843F0E7
:101D480010031360012384F8D4385EE0122344F6AC
:101D5800206223700023C4E902236B4A0023C4E9EC
:101D680004236A4BE3616A4B4DE5102344F6206275
:101D780023700023C4E90223634A0023C4E904232F
:101D8800644BE361644B3EE5012A7FF437AE0220E1
:101D980027F02EFA28BB802015F022F92EE6013212
:101DA800D2B2042A4FF0010321D900236374637C63
:101DB80090F902003B440022019293F8FC11236839
:101DC8001B780C2707FB036673780093534B53F873
:101DD8002130022126F04CFFA06000287FF40BAED2
:101DE800D9E74F4990F804E0627C3B460F4601EB87
:101DF800020C9CF8FCC1F445D1D1002BD7D06274F9
:101E0800D5E701340A2C7FF434AE02F0ABF8002198
:101E1800062014F0F3FC33685F0505D51CF036FB8B
:101E28000021072014F0EAFC332014F0F2FC3D4BAB
:101E3800186028B10E2383710123C3710023037234
:101E4800202114F071FD384B3849394C01221A70A1
:101E58001C270023084607FB034EDAB2DEF804E02D
:101E68008E4503D00133102BF5D10022314C224985
:101E78001C2707FB02420B6B526E2F4C13430B635C
:101E8800036823F0010303602C2014F0C2FC2060D7
:101E980020B10E238371C37100230372092114F04A
:101EA80043FD0021254814F06AFE4FF47A701AF0B9
:101EB80014FA2068224C14F0D8FC00220A23114698
:101EC8001E4814F08DFE24F0DBF800283CD11D4B91
:101ED8002A685A61012283F8242018763CE01623E8
:101EE80083710223C37100230372D4E501330E2BDF
:101EF8007FF4DBAD0020E1E500380240B860024025
:101F080057240008D43C0020400D03005D19020846
:101F180045190208FD180208B11E0208E0EA020885
:101F2800E4CE0208A0750020A87500207060024069
:101F380054000020000000205475002000380040A4
:101F4800A186010030B80020013CBCD15A4B1A7E52
:101F580083F8244001321A76584B594F0021997062
:101F680041F2142102225A705A503368554A13F428
:101F7800002318BF01231370534B5B78202B00F20A
:101F88008D802023C7F8D838504B514C4FF47A72C3
:101F9800A3F848202B68C7F8DC384E4B4FF00008F0
:101FA80083F800804FF400602B68C7F8E03887F8A2
:101FB800E48827F01DF968B10323182590F9020079
:101FC80042468DE828004FF400614FF4965326F0FE
:101FD8004FFE2060236813B13F4B404A1A604FF40C
:101FE800805027F005F970B10323082490F9020006
:101FF80000228DE818004FF480514FF4165326F054
:1020080037FEC7F8E808D7F8E83813B1324B344A36
:102018001A60336840F6020213420AD0314A03219B
:102028001170314A01211170304900220A8030496B
:102038000A80190108D514F072FA2E4B1A68002884
:1020480036D042F480621A604FF4806027F0D0F8EE
:10205800294C00B30022032590F902000192009553
:102068004FF4E1334FF4806126F002FE206090B116
:10207800DFF88890013D46D116AB009301952B46B9
:102088002A4629461C4820F0E8F9002840F09280AA
:10209800206826F0D8FD002323609CE0402B01D85F
:1020A80040236FE7802B94BF80234FF4807369E748
:1020B80022F48062C7E700BF30B80020587C0020B7
:1020C800B8400020B85A0020A4750020F80200107B
:1020D800A4B6002028A0002080940020140200202C
:1020E80030020020B84B002000280020E8A3002080
:1020F800EAA30020F0BF00205877002060B5002038
:1021080020681AF024FA20681AF027FA8046002876
:10211800F6D1FF21206820F081F9D9F80070CDF8B8
:10212800248007F5FA778DF82880D9F800309F4287
:10213800A0D920681AF011FA0428F6D920681AF0F4
:1021480006FA83468DF8240020681AF000FA8DF804
:102158002500824620681AF0FAF98DF82600804694
:1021680020681AF0F4F98DF82700074620681AF05D
:10217800EEF9BBF1550F8DF828007FF47BAFBAF16B
:10218800010F7FF477AFB8F1FF0F7FF473AFAA2880
:102198007FF470AF8DF8270009A826F049F9874227
:1021A8007FF468AF002307228DF859308DF85A2044
:1021B8008DF85B309DF859309DF85B2084F84430E9
:1021C8009DF85A3043EA0223A4F846308F4B012287
:1021D8001A705A709A708E4B8E481B6833608E4BFB
:1021E8008E4D002101275C2283F874782AF0F5FDD2
:1021F8008B4A0023C2F82C318A4A284613601EF005
:1022080041F816F0E7FF6428B8BF642068653946CE
:1022180038461EF06FF8844B5A79984652B1834B72
:102228001B68642BB8BF6423C5F89C30394602206C
:102238001EF060F898F805307D4F022B25D13B68D9
:102248009A0722D5B8F80030DFF8FC9199FBF3F330
:102258009BB2642BB8BF6423C5F8E4300121032086
:102268001EF048F898F80530022B40F08880B8F83E
:10227800020099FBF0F080B26428B8BF6420C5F86A
:102288002C01012104201EF035F8012106201EF042
:1022980031F8012108201EF02DF8336840F60202BB
:1022A8001A4214BF0121002107201EF023F8012142
:1022B80005201EF01FF831680920C1F3C0111EF077
:1022C80019F839680A20C1F3C0011EF013F83968FB
:1022D80046F2A813C5F8DC32C1F380010B201EF0CA
:1022E80009F839680C20C1F340111EF003F8316871
:1022F8000D20C1F340411DF0FDFF31680E20C1F3F0
:1023080080211DF0F7FF71880F2001F001011DF0F9
:10231800F1FF31681020C1F3C0611DF0EBFF316897
:102328001120C1F340711DF0E5FF012112201DF0BD
:10233800E1FF012115201DF0DDFF3E4B1320197828
:102348001DF0D8FF082020F043F823680546CBB1DC
:1023580020F048F8002818BF0546294614201DF02B
:10236800C9FF0021082014F049FA334A137863F0B2
:102378007F03137027B0BDEC028BBDE8F08F16F019
:1023880029FF78E71D46E8E7302384F88738FEF709
:102398006ABA312384F88D38FEF76EBA322384F88E
:1023A8009338FEF79BBA2946032014F027FA2846EB
:1023B80023F05AFD052523F049FD642019F08DFF0F
:1023C800013DF8D1284623F04FFDFEF7D9BA0C2A73
:1023D8003EF667AF4FF49B53D340DB077EF561AF02
:1023E800164BFEF74FBF164C164904F6EC0014F0D6
:1023F80067FB0D2384F8F43804F6EC001E2384F8F8
:10240800F5380AF02BFBFFF7B0BA00BFA077002021
:10241800205B002024050010C02F00200828002081
:102428000000001020050010D673002004040010DE
:102438002C7300209E72002060C500208D35000896
:10244800B840002000D1020840420F00704710B584
:10245800027B01681F2A4FF020030ED94C68203AEE
:1024680093401C4216D00C4A40680024147002683D
:1024780022F001020260CB6010BD0C6893401C4240
:1024880008D0054A406800241470026822F001024E
:1024980002608B6010BD00BF92C400202DE9F74F89
:1024A8006A4CDFF8ACE123880091DEF80010B4F93B
:1024B8000480C3EB21125B00C3EBE103B4F9021003
:1024C80052435943131308FB03F84FEAA83808EBA3
:1024D800E12101EB8102B1F5FA3802F180024FEAFD
:1024E800E1794FEA222349F1FF39B4F90820019331
:1024F800A8FB08AB08FB09F30BEB430BA161D3174F
:1025080002FB09F108FB0311A2FB08230B441F037C
:10251800160347EA1257B4F90A2002FB0BF1D31746
:102528000AFB03130546A2FB0A011944020A42EA00
:10253800016292194FEA2123E6887B41003243F574
:102548000043A2FB060106FB03114A10CB1752EA0F
:1025580003016FD0B4F91060B4F90E00F71706FB49
:102568000BF10AFB0711A6FB0AAB8B4400FB09F62B
:10257800C11708FB0161A0FB08898944DEF8041033
:102588004FEA4846C1F5801E4FEA494747EAD8371F
:102598001AEB060AB4F90C8076464BEB070BF717D3
:1025A80000264FEACE70F90716EB0A064FEAC8076D
:1025B80041EA5E0147EB0B0740F6354E861B61EB9F
:1025C8000707A6FB0E010EFB071128F055FFB4F90B
:1025D80016204E13470B47EAC14702FB06FED317E6
:1025E80007FB03EEA2FB07237344564307FB03666E
:1025F800A2FB07233344560E46EAC3163218B4F931
:1026080014604FEA636747EB01037143F71700FB58
:102618000717A6FB00013944C60C46EA4136921951
:102628004FEAE147B4F912607B41100A40EA0360BF
:10263800320112180DB1120A2A60009B13B11A4612
:10264800019B136003B0BDE8F08F00BF4874002001
:102658007C4A002070474FF48053838270474FF4C0
:102668008053838270470346012283F8232053F85E
:10267800043C143803B118477047BFF34F8F05491E
:10268800054BCA6802F4E0621343CB60BFF34F8F77
:1026980000BFFDE700ED00E00400FA05036B10B58C
:1026A8000446D3B9836D99891A88890692B214D5DC
:1026B800900612D5E26A6AB99B88E2696169DBB261
:1026C8008B54E369E1680133B3FBF1F201FB123388
:1026D800E36102E0988880B29047626BA36DCAB943
:1026E80099891A88090692B214D5100612D5A26AD9
:1026F800616A8A4204D1DA6822F08002DA6009E06D
:10270800A1692069895C99800132B2FBF0F100FB74
:102718001122A262998A1A88C90592B204D5D207F1
:1027280002D54FF6F7721A8010BD90F8372003468D
:1027380002F0FF0012B1002283F83720704737B546
:102748000446056C90F84C106B4606221830A847D2
:10275800A8B19DF800209DF8013043EA02232385A3
:102768009DF802209DF8033043EA022363859DF813
:1027780004209DF8053043EA0223A385012003B015
:1027880030BD37B50446056A6B4606223B21083042
:10279800A847A8B19DF800209DF8013043EA02231C
:1027A800E3829DF802209DF8033043EA0223238345
:1027B8009DF804209DF8053043EA02236383012035
:1027C80003B030BD0E4B2DE9F04193E8E000884698
:1027D8000024054406440744444501DBBDE8F08174
:1027E80037F9142035F9140036F91430134402224D
:1027F80093FBF2F3C01A0AF000FB0134ECE700BFC8
:102808005860002038B5044647200AF087F91D4B68
:102818001B68DB0205D51C4B5B681868201A0AF098
:10282800DDFA1A4C1A4DA0790AF0D8FAE0790AF0C4
:10283800D5FA2B68A068C01A0AF0DFFA6B68E0685E
:10284800C01A0AF0DAFA6423206990FBF3F00AF060
:10285800C5FAB4F920000AF0C1FAB4F922000AF066
:10286800BDFA208D0AF0BAFAA08C0AF0B7FAE08C0B
:102878000AF0B4FAE3792B74A368AB60E368EB6001
:1028880038BD00BFD862002058600020F4BF002087
:10289800446000205F4B2DE9F74F1C68DFF8DCA18E
:1028A800DFF8DC915C4A5D4BDFF8D8B1264604F1CD
:1028B800440746F8040B002552F82510716253F8B6
:1028C800251046F8041B5BF82510B1605449BAEC92
:1028D800010A51F8251071610192009329F080F9DD
:1028E80027F8020B59F8041FB9804E49009B019A3A
:1028F8004FEA850888440135D8F82010A7F84E100B
:10290800032DD9D1484D494804F13402002335F943
:10291800131022F8021B30F91310D1800133042B55
:10292800F5D1434B43481A88A4F850205A889B880D
:10293800A4F85430404BA4F852201A88A4F8562022
:102948005A88A4F858209A88DB88A4F85C303B4B56
:10295800A4F85A20197804F15E0200238B4252DB56
:10296800374BDFF824C11B88A4F88630354BDFF8D5
:102978001CE11B88A4F88830334B344F9B69C4F89A
:102988008C30334B334E1B69C4F89030324B334D87
:102998001B88A4F89A30324B5B89A4F88030314BFD
:1029A8001B88A4F89C30304B1B88A4F89E302F4B12
:1029B8001B88A4F8A0302E4B1B88A4F8A23004F181
:1029C800A40104F1B00200235CF8230041F8040BD1
:1029D8003EF9130022F8020B37F91300908036F9FC
:1029E8001300508135F9130010820133032BEBD10A
:1029F800204B1B88A4F8CC301F4B1B88A4F8CE3082
:102A080003B0BDE8F08F30F9135022F8025B0133B0
:102A1800A4E700BF58600020507100202C710020EE
:102A2800447100204C730020AA770020C870002051
:102A380084030010D46F00205E590020A06F00208E
:102A4800B6730020FCA300206474002044570020C3
:102A580094740020A05700204C590020C85700202B
:102A68003C5900201E57002066570020625700205E
:102A78006457002060570020CE570020080400103B
:102A88005804001038710020585200206452002069
:102A9800D0B5154B1B680360144B1B680371144BAE
:102AA80093F828304371134B1B788371124B1B78B2
:102AB800C37106461CF0D2FE07461CF0F3FE04461E
:102AC80024011CF0B9FE44EA870444F0010444EAF6
:102AD80080141CF089FE44EA00241CF09BFE44EAA2
:102AE8000030B060D0BD00BF20C60020F0BF00207D
:102AF80064C50020BF7800200878002030B51C4C41
:102B080085B020B11B4B1B88B3F5805F2ADA1A4DBC
:102B180001A8FFF7BDFF0C22294601A82AF034F9C5
:102B2800F0B101AB03CBA06018686960A8605320BE
:102B380009F0F4FFA0680AF051F9207B0AF04EF979
:102B4800637B0193A37B029301A8E37B03930AF0C1
:102B5800B5F820690AF042F9064B00221A800120D4
:102B680005B030BD04F10800FFF792FFDFE700BFB2
:102B78007C4A002056630020844A002030B5002596
:102B880085B00446C582058345830DF107030122FC
:102B980006210D2023F028F900B39DF8070010F056
:102BA80004001BD002AB062229460D2023F01CF995
:102BB800A0B19DF809209DF8083043EA0223E3827A
:102BC8009DF80B209DF80A3043EA022323839DF8E1
:102BD8000D209DF80C3043EA0223638305B030BD15
:102BE8001FB500210446C182018341830DF107030B
:102BF80001220E2023F0F8F800B39DF8070010F02A
:102C080008001BD002AB062201210E2023F0ECF8AD
:102C1800A0B19DF808209DF8093043EA0223E38219
:102C28009DF80A209DF80B3043EA022323839DF880
:102C38000C209DF80D3043EA0223638304B010BDD5
:102C480013B5062204466B4603211E2023F0CCF858
:102C580020B9E0822083608302B010BD9DF8002077
:102C68009DF801309DF8021043EA02231BB21A4A6C
:102C780007EE903A92ED007AF8EEE77A67EE877AF7
:102C880092ED027AFDEEE77A17EE903AE3829DF82C
:102C9800033043EA01231BB207EE903AF8EEE77AD5
:102CA8009DF8041067EE877A92ED017AFDEEE77AD7
:102CB80017EE903A63839DF8053043EA01231BB26F
:102CC80007EE903AF8EEE77A67EE877AFDEEE77A54
:102CD80017EE903A2383BFE74C02002007B506227F
:102CE8006B46F721762023F07FF8124BE0B19DF870
:102CF80001109DF800209DF80300090141EA023106
:102D08009DF8022041EA12119DF804205960120131
:102D180042EA00329DF80500596142EA10121A6031
:102D28009A6103B05DF804FB5A695A609A691A609F
:102D3800F7E700BF7C4A0020682023F055B808B5A3
:102D480001220B210D2023F065F820B11D22092155
:102D58000D2023F05FF800F0010008BD30B5002316
:102D680085B0C3820383438304460DF10703012220
:102D780002210C2023F038F818B90025284605B0A0
:102D880030BD9DF80730DB07F7D502AB06220321DB
:102D98000C2023F029F80DF10703012209210C204A
:102DA80023F022F805460028E7D09DF8073013F0F5
:102DB8000C0FE2D19DF809209DF8083043EA022360
:102DC800C3EB83339B009DF80B20E3829DF80A3008
:102DD80043EA0223C3EB83339B009DF80D20238332
:102DE8009DF80C3043EA0223C3EB83339B006383D3
:102DF80001220A210C2023F00DF8BFE73122F4212B
:102E0800762023F007B8682023F004B810B5012213
:102E180010210E2022F0FEFF0446142019F05DFA5E
:102E280044B1A02211210E2022F0F4FF04460A200A
:102E380019F053FA204610BD07B500220A210C20CC
:102E480022F0E8FF142019F048FA0F220A210C207A
:102E580022F0E0FF0A2019F040FA01AB032210210A
:102E68000C2022F0C1FF0A2019F037FA00220A21AB
:102E78000C2022F0CFFF0A2019F02FFA0DF10303DE
:102E8800012202210C2022F0AFFF0DF103030122E1
:102E980009210C2022F0A8FF01220A210C2022F08F
:102EA800B9FF012003B05DF804FB2DE9F04F05469A
:102EB80087B0322019F011FA192200211E2022F0C1
:102EC800A9FF802201211E2022F0A4FF64200024F3
:102ED80019F003FA714F2846FFF7B2FE2646009410
:102EE800A246A046A346012202211E2022F092FFFC
:102EF800462019F0F2F92846FFF7A2FE80B1B5F98D
:102F08001810B5F91A20B5F9160091420B46A8BF5A
:102F180013468342A8BF0346BB4204DA0AF1010AFA
:102F280008F1010806E0009B0B440BF1010B064475
:102F380000931444BBF1090F2ADD4FF000091A224F
:102F480000211E2022F066FF4F464B460122022137
:102F58001E20019322F05EFF462019F0BEF9284694
:102F6800FFF76EFE019B88B1B5F91800B5F91AC0D4
:102F7800B5F916E0494960450246A8BF6246724560
:102F8800A8BF72468A4207DA09F1010901370BE046
:102F9800B8F1040FA7DDD0E7009A121A0133A6EBA7
:102FA8000E060092A4EB0C04092B6ADC042FCDDD7D
:102FB8000F22ADF80C2002A84FF40042ADF80E2005
:102FC8000593CDF810B013F0FFFB1023ADF80C30CB
:102FD80002A848F20103ADF80E30CDF8108005972D
:102FE80013F0F2FB0025BAF1000F02D1B9F1000F7E
:102FF8000DD01123ADF80C3002A848F20103ADF84A
:103008000E30CDF810A0CDF8149013F0DDFB244B52
:10301800F5B307EE906ADFED236AF8EEE77A86EEFD
:10302800A77AF0EEC77AC3ED007ADDED007AF8EE04
:10303800E77A86EEA77ADFED1C6AF0EEC77AC3ED71
:10304800017A07EE904AF8EEE77A86EEA77AF0EE74
:10305800C77AC3ED027A782200211E2022F0DAFE18
:10306800202201211E2022F0D5FE002202211E204E
:1030780022F0D0FE642019F030F9284607B0BDE8E8
:10308800F08FB8F1040F93DC042F91DC0125AAE737
:103098004FF07E521A605A609A60DCE701F0FFFF39
:1030A8004C02002000801F4600801446F8B50446F4
:1030B8000D4D806816460F4613F0D2FB0120002103
:1030C80019F0FAF83946284613F0B8FD3146284673
:1030D80013F0B4FDA06813F0C8FB0120002119F01B
:1030E800EBF80120F8BD00BF0030014013B5002106
:1030F800044622F0E5FE142019F0EFF80F212046CF
:1031080022F0DEFE0A2019F0E8F801AB03221021B4
:10311800204622F0EFFE0A2019F0DFF89DF904207E
:103128009FED285ADFED285A284B06EE902AF8EE34
:10313800E66AF7EE007A76EEC56A9DF90520B0EEEC
:10314800677AA6EEA57A0021204606EE902AB3EE0D
:103158000E6AF8EEE66A27EE067A76EEC56A83ED21
:10316800037AB0EE677AA6EEA57A9DF9062027EED7
:10317800067A83ED047A07EE102AB8EEC77A37EE9E
:10318800457AE7EE257A67EE867AC3ED057A22F06E
:1031980097FE0A2019F0A1F80DF10303012202217C
:1031A800204622F0A7FE0DF1030301220921204643
:1031B80022F0A0FE0221204622F082FE012002B069
:1031C80010BD00BF000000430000803B4C020020FF
:1031D8002DE9F0410C4D04468846806817461E4686
:1031E80013F03EFB48F08001284613F027FD3B46CC
:1031F80000223146284613F0F3FCA06813F035FB93
:103208000120BDE8F08100BF0030014010B5064C38
:10321800207838B119F00CF8A368C01AC0F5FA5034
:1032280020EAE07010BD00BF487C0020F8B50446D5
:103238000E46FFF7EBFF002802DDC11719F03CF836
:103248000A4B20695F7800251D7013F009FBC9211E
:10325800074813F0F3FC3B462A463146044813F06E
:10326800BFFC206913F001FB0120F8BD487C002059
:10327800003001402DE9F7434B4C2368C0F8163065
:1032880000F11606A388B380A4F11C0807464FF086
:1032980001090020454698F82230012B5DD051D312
:1032A800022B78D000286DD09DF8062012F003027A
:1032B80068D19DF801109DF800309DF803E085F86D
:1032C800222043EA01231BB2384907EE903A91EDD8
:1032D800037AF8EEE77A67EE877A91ED047AFDEEE5
:1032E800E77A17EE903AFB829DF8023043EA0E2304
:1032F8001BB207EE903AF8EEE77A9DF805E067EE24
:10330800877A91ED057AFDEEE77A17EE903A3B83DE
:103318009DF8043043EA0E231BB207EE903AF8EE0C
:10332800E77A67EE877AFDEEE77A17EE903A7B83C5
:103338003368EB61B388A380012385F8233024E048
:103348009946A8E701220221384622F007FE98F89C
:103358002230013388F8223002E0FFF757FF10B11E
:1033680098F8230011E069463846FFF75FFF18B167
:103378009DF800309B070BD1002385F82230B9F166
:10338800000FDDD1002085F8230003B0BDE8F083ED
:1033980007220321D8E7FFF739FF0028E0D1694663
:1033A8003846FFF743FF7DE7984A00204C0200208B
:1033B800C36B2DE9F3410446002B7CD0187813F039
:1033C80028FA054613F056FA002874D125B11423BB
:1033D800AB710823EB7128720021284613F0A4FA78
:1033E800634B6361284613F04EFA002857DB614AA5
:1033F800DFF88C8104F1140342F8203018F80060DB
:10340800284613F04AFA0746284613F03CFAC3B296
:1034180003F0030003F0FC0303F1804303F59C333E
:10342800820099680F20904021EA0001996099680C
:10343800F8B2904008439860284625B113F023FA63
:10344800012303FA00F04C4B58611968C24311403C
:1034580019605968114059601968014319609968E1
:1034680011409960D9680A40DA609A6810439860F8
:10347800424B9A5DF02A12DDB044F0229A5598F832
:1034880010308DF8043003238DF8053000238DF8B3
:10349800063001A801238DF8073022F0F1FC55B160
:1034A800284613F0F0F9012313FA00F01FBF324A3F
:1034B80013681843106004F11805636C80226B21AF
:1034C80028469847642018F008FF636C0722682193
:1034D80028469847642018F000FF636C00226B218F
:1034E80028469847642018F0F8FE0122636C6B2187
:1034F800284698470F2018F0F0FE94F83530012B35
:103508008CBF1A221822636C1B21284698470F206B
:1035180018F0E3FE636C10221C21284698470F2000
:1035280018F0DBFE636C94F834201A21284698477B
:103538000F2018F0D2FE636C94F836201921284623
:103548009847642018F0C9FE636C1022372128467A
:1035580098470F2018F0C1FE636C012238212846D5
:1035680098470F2018F0B9FE02B0BDE8F08100BFFF
:103578006F260008D4330020003C0140143400209A
:103588000CD2020838B5104C05460121204613F02C
:10359800F6FA0021012018F08FFE2846FFF708FFF1
:1035A80010226A2105F11800FFF780FD642018F049
:1035B80094FE2046032113F0E2FA01200021BDE821
:1035C800384018F079BE00BF003001400B4A0C4962
:1035D80013880968013313800A4A1368013313609A
:1035E800094A138801339BB28B42138005D100230B
:1035F8001380064A138801331380704756630020EE
:1036080090490020E0620020E4620020E662002089
:1036180038B5284B1B78093B012B05460C4647D883
:10362800452009F07BFA284609F078FA0E2D33D0A8
:1036380003D86DB10D2D10D038BD282D36D0FF2DF3
:103648002FD01E2D34D1206809F0C8FB606800E037
:103658002068BDE8384009F0C1BB63782078A3B181
:1036680080F0800009F05AFAA468E0B209F056FA2E
:10367800C4F3072009F052FAC4F3074009F04EFAE0
:10368800200EBDE8384009F049BA09F047FA6068E9
:10369800BDE8384009F0B1BB206809F09FFBA0687D
:1036A800D7E7054B0548197809F0B8FB0020E8E78B
:1036B80038BD00BFB85A002080C40020180803088D
:1036C8002DE9F04F964B974C8DB0CDE90001188845
:1036D8000293002840F03C812378012B05D1924BBE
:1036E80060781B68C41A60426041904EDFF85C92B3
:1036F800FFF704FADDE90001FFF7CCF83468492048
:1037080009F00CFA8A4B2546186809F067FB55F84A
:10371800280B09F063FB284622F0F4FC201D22F058
:10372800F1FC04F1100022F0EDFC04F11C08112753
:103738004FF0010A4D46D9F800200AFA07F3134260
:1037480003D0D8F8000009F058FB0137142F08F10E
:103758000408F0D1042104F13400764F09F051FB3C
:10376800032104F13C0009F04CFB3B88B4F942000A
:10377800C01A09F033FB2B68990408D56E4B1888DA
:10378800B4F88630C01AC0F30D0009F027FB2B6887
:103798005A0403D5B4F8880009F020FB2B685B05B0
:1037A80004D5032104F1940009F02BFB2B681805BC
:1037B80003D5D4F88C0009F020FB2B68D90403D575
:1037C800D4F8900009F019FB2B68DA0303D5B4F894
:1037D8009A0009F003FB032104F1440009F011FBEE
:1037E800032104F14A0009F00CFB032104F1500005
:1037F80009F007FB2B689B0204D5042104F156004D
:1038080009F0FFFA3B88B4F95E00C01A09F0E6FA3D
:103818004A4B93F8009004F160080127B94575DC1C
:103828002B68980505D5B4F98000A0F2DC5009F0A2
:10383800E4FAB4F99C0009F0E0FAB4F89E0009F043
:10384800DCFAB4F8A00009F0D8FAB4F8A20009F03C
:10385800D4FAD4F8A40009F0D0FAD4F8A80009F0F2
:10386800CCFAD4F8AC0009F0C8FAB4F9B00009F001
:10387800C4FAB4F9B20009F0C0FAB4F9B40009F016
:10388800BCFAB4F9B60009F0B8FAB4F9B80009F00E
:10389800B4FAB4F9BA0009F0B0FAB4F9BC0009F006
:1038A800ACFAB4F9BE0009F0A8FAB4F9C00009F0FE
:1038B800A4FAB4F9C20009F0A0FAB4F9C40009F0F6
:1038C8009CFAB4F9C60009F098FAB4F9CC0009F0EA
:1038D80094FAB4F9CE0009F090FA32681849726087
:1038E800B260184B521A121153430133032293FB4F
:1038F800F2F202EB42029B1AD02202FB031333605E
:10390800114B01221A700DB0BDE8F08F38F9020B87
:10391800B4F95E30C01A09F070FA01377EE700BFCB
:10392800E4620020A475002090490020586000201F
:10393800E0620020F26F0020D4620020A06F002017
:1039480064600020C54EECC4F0620020D8620020FC
:10395800814B824A1B681168994206D00CA9002045
:1039680041F8203D1360FFF753FE7D4D7D4E042244
:103978002946304629F008FA48B12B6805930CA966
:1039880033682B6041F8203D1E20FFF741FE029B63
:1039980021781B8860780B44013BB3FBF0F200FBF5
:1039A8001233994240F2C4810120FFF7A7F86E4C08
:1039B800DFF8B8B1DDE90001FEF76CFF502094E8AC
:1039C800600009F0ABF8A268236810681B68626899
:1039D80003441068A3EB400009F00FFA06F128022F
:1039E80005F1280104A822F09AFB04A822F08AFB1A
:1039F800321D291D04A822F092FB04A822F082FBA4
:103A080006F1100205F1100104A822F088FB04A8B1
:103A180009F054F905F11C0A06F11C0911270122C5
:103A2800D846DBF8003002FA07F1194208D0DAF874
:103A38000000D9F800300392C01A09F0DEF9039AA1
:103A48000137142F0AF1040A09F10409E9D105F133
:103A5800340006F13401002331F9027B30F9022BDE
:103A6800D21B04AF47F823200133042BF4D1384686
:103A780009F0BCF805F13C0006F13C01002331F9DE
:103A8800027B30F9022BD21B04AF47F82320013305
:103A9800042BF4D1384609F0A9F8D8F8002012F41C
:103AA800005706D0B5F88630B6F886105B1A04932E
:103AB800012751040AD50CAB03EB8701B6F888003F
:103AC800B5F888301B1A41F8203C0137530514D546
:103AD80004AB03EB870305F1940106F1940E043B54
:103AE80005F19A0C31F9020B3EF9029B8C45A0EBCB
:103AF800090043F8040FF5D1033710050AD50CABBC
:103B080003EB8700D6F88C10D5F88C305B1A40F898
:103B1800203C0137D1040AD50CAB03EB8700D6F85B
:103B28009010D5F890305B1A40F8203C0137D30349
:103B38001ED50CAB03EB8702B6F89A10B5F89A308D
:103B48005B1A42F8203C0137012F40F01D81049890
:103B580009F053F90EE000BF40C00020E8620020E1
:103B6800EC62002020C6002058600020D8620020A7
:103B7800002FE9D103214420FEF724FE03214A2027
:103B8800FEF720FE50200321FEF71CFED8F8003077
:103B9800980203D504215620FEF714FE8F4B5E20B1
:103BA8001978FEF70FFED8F80030990506D5B5F953
:103BB8008000B6F98030C01A09F01FF9B6F99C30B8
:103BC800B5F99C00C01A09F018F9B6F89E30B5F896
:103BD8009E00C01A09F011F9B6F8A030B5F8A00097
:103BE800C01A09F00AF9B5F8A200B6F8A230C01A4E
:103BF80009F003F905F1A40706F1A40805F1B009D5
:103C080057F8040B58F8043BC01A09F0F6F8B94500
:103C1800F6D100274FF0020807F15801A26863683F
:103C280032F9110033F911302268034432F91100D6
:103C380093FBF8F30137C01A09F0DFF8032FEBD133
:103C480000274FF002086368A168226807F1580E40
:103C58004FEA4E0E73447144B3F90630B1F90600C9
:103C680072440344B2F9060093FBF8F30137C01A13
:103C780009F0C3F8032FE6D100274FF00208636864
:103C8800A168226807F15C0E4FEA4E0E7344714436
:103C9800B3F90430B1F9040072440344B2F90400E2
:103CA80093FBF8F30137C01A09F0A7F8032FE6D100
:103CB80000274FF002086368A168226807F1600EC8
:103CC8004FEA4E0E73447144B3F90230B1F9020061
:103CD80072440344B2F9020093FBF8F30137C01AA7
:103CE80009F08BF8032FE6D1B6F9CC30B5F9CC0042
:103CF800C01A09F082F8B6F9CE30B5F9CE00C01A6C
:103D080009F07BF8226836496368A3606260354B26
:103D1800521A12115343013393FBF7F707EB470786
:103D2800D022DB1B02FB031323602F4B01221A70E6
:103D38002E4B1B681A067FF5E6AD2D4D2D4C2A68D3
:103D480023689A420ED16A6863689A420AD1029B34
:103D5800294A1B881268B3EB520F31D1274B1B88B5
:103D68005B062DD1482008F0D9FE286809F045F8EF
:103D7800686809F042F82B6823606B686360DDE9C6
:103D88000001FEF73FFDBEE57B1E002004AA4000AF
:103D980052F82320C0B20AB140F0010013F1FF33FA
:103DA800F4D208F0BBFE4FF0000904AB53F8290029
:103DB80008B109F022F809F10109B945F5DBD9E69E
:103DC8000F4B227CD9799142D9D19968A268914246
:103DD800D5D1DA68E3689A42D1D194E5A06F002082
:103DE80064600020C54EECC4F062002030730020EF
:103DF80068C400204460002090490020E66200204A
:103E0800F4BF00202DE9F74F9B1A174600930D9A2F
:103E18000E9B4C4C9B1A01936368002914BF06261D
:103E28000426013380468A4626D12568AE4240F2F0
:103E38008780454B03EB8503D3F818B0584626F026
:103E480043FD0B3008F01EFE814618B1012003B077
:103E5800BDE8F08F5A46032D94BF414651463B4872
:103E680008F0DCFF3A4A1368181A636810600133D7
:103E78006360384B83F82490DFF8D490DFF8D4A03F
:103E880065680C9B9D4217DB10D1012008F0FAFDF4
:103E980060B92F4A13680A20013B136008F03EFE00
:103EA8002368013323604FF0FF3363602068864244
:103EB80094BF00200120CAE70D9B4BB1019B0D9ACE
:103EC8006B43D25C01239340234A1268134227D0E4
:103ED800009B5D43236807EB05082BBB785926F048
:103EE800F3FC00F1050B584608F0CCFD0028ADD1D5
:103EF800D9F800009AF82430A0EB0B00C9F80000AC
:103F0800ABB12C2008F00AFE2368A3B9785908F051
:103F1800D9FD98F904104B1C02D0104808F07EFF18
:103F2800636801336360ABE74FF0030BDBE7012302
:103F38008AF82430E8E79844094898F80410EDE72F
:103F4800002084E71C6300200CD20208360803080E
:103F5800586300207C4A0020D862002045080308E6
:103F6800450C03082DE9F04F884B1B7885B003F00A
:103F7800FF04002B4AD1864A864B12880292864A51
:103F8800DC8412881C8593F82A9093F82B5093F8B8
:103F98002C3001924FF03C0B224600942746A44651
:103FA800A646584621B2202933D1BCF1000F02D0D1
:103FB8007849A1F826E017B1764981F82A90009946
:103FC80011B1744981F82B5012B1724A82F82C3021
:103FD800BCF1000F02D06F4B20221A856B4B0122D7
:103FE8001A706E4B1B788BB16D4B1A6840F22A33EE
:103FF80053606C4B196800234B620B889BB243F0EB
:1040080001030B80136843F00103136005B0BDE89A
:10401800F08F654901EB840C9CF803109CF802C0F2
:10402800CCF1FF0C1FFA8CFCBCF1000F00F0A9804A
:104038005D4ECCF1FF0C01FB0CFC36F82480B8FB7C
:10404800FBFA4FEA2C2CBAF1050F00F29D80DFE84D
:104058000AF003394E6074855FFA8CF3A1EB0C0506
:1040680008FB05F5B5FBF0F51D44EDB20122009201
:1040780017464FEA01284FF0170C48EA05480EEB9F
:104088000C0648EA03080396039EA6EB0C090126D2
:1040980006FA0CFA029E1AEA080FB246019E1FFAA7
:1040A80089F918BFB246414E1CF1FF3C46F829A0D9
:1040B800EAD20EF1180E1FFA8EFE01344FF0010CF1
:1040C80089466FE7B8FBF0F200FB12881FFA88F800
:1040D8005FFA8CF3C8F13C08A1EB0C0C0CFB08FC54
:1040E8000D46BCFBF0FC9C445FFA8CF1BEE7B8FBC4
:1040F800F0F300FB13835FFA8CF29BB2A1EB0C0C7C
:1041080003FB0CF3B3FBF0F31344DBB20D4611468B
:10411800ACE7B8FBF0F500FB15881FFA88F5C5F188
:104128003C085FFA8CF2A1EB0C0505FB08F5B5FB22
:10413800F0F51544EDB20B46E9E7A1EB0C035FFA85
:104148008CF5B8FBF0FC00FB1C8C1FFA8CFC0CFBFC
:1041580003FC0B46BCFBF0FCAC44C5E7B8FBF0F332
:1041680000FB13881FFA88F3C3F13C085FFA8CF54B
:10417800A1EB0C0303FB08F3B3FBF0F32B44DBB216
:1041880074E70B460D4671E7494672E792C4002072
:10419800864900207C4A0020844900208C49002060
:1041A800884900207C49002094C40020D43C002089
:1041B80038B5064C0D460146204612F03FFD29460B
:1041C8002046BDE8384012F039BD00BF003C004031
:1041D8002DE9F843314C324D3248334FDFF8D09057
:1041E80001260221267012F0CAFC286812F038FB5A
:1041F80000210520FFF7DCFF00210620FFF7D8FF8C
:1042080031460420FFF7D4FF3E46002339889AB28E
:10421800914203F101082CD8FF210720FFF7C8FFBE
:1042280002210520FFF7C4FF00210620FFF7C0FF89
:10423800DFF87C8001210420FFF7BAFF00233188D2
:104248009AB2914203F101071CD8FF210720FFF71A
:10425800AFFF286812F009FB0321124812F08FFC07
:104268003C220021114828F0B8FD00232370BDE846
:10427800F8839BB2072039F81310090AFFF798FF53
:104288004346C3E79BB2072038F81310890001F0B2
:10429800FC01FFF78DFF3B46D1E700BF175B00200D
:1042A800185B0020003C00400A0A0020F45200205D
:1042B80014390020F8B5294F29482A4C022112F058
:1042C8005EFC386812F0CCFA274B1B78012B09D01A
:1042D800022B05D00021A020FFF76AFF830703D532
:1042E800082300E048232370237813F0400F1F4B66
:1042F80015BF4FF4F0724FF4C3721A801A8014BFBE
:1043080010230D2300269DB2B3B29D421ED82178FA
:10431800174C0020FFF74CFF04210846FFF748FF21
:10432800386812F0A2FA03210D4812F028FC3C224A
:10433800FF21104828F051FD227E32B10E4B1B7828
:104348000BB9FFF745FF00232376F8BD06F11000EF
:104358000121C0B2FFF72CFF0136D5E7185B00201A
:10436800003C00400C0A0020103900200A0A0020F6
:104378004C020020F4520020175B0020F8B50446D8
:104388000D4D006816460F4612F06AFA012000210A
:1043980017F092FF3946284612F050FC314628465D
:1043A80012F04CFC206812F060FA0120002117F08E
:1043B80083FF0120F8BD00BF003001400348D0F85A
:1043C800AC3113B100F5D270184770475400002083
:1043D8000348D0F8903113B100F5C47018477047FE
:1043E800540000200348D0F8743113B100F5B670BA
:1043F80018477047540000200348D0F8583113B1CB
:1044080000F5A87018477047540000200348D0F8FA
:104418003C3113B100F59A701847704754000020DA
:104428000348D0F8203113B100F58C701847704755
:10443800540000200348D0F804310BB1FC30184771
:10444800704700BF540000200348D0F8E8300BB193
:10445800E0301847704700BF540000200348D0F8E8
:10446800CC300BB1C4301847704700BF540000204F
:104478000348D0F8B0300BB1A8301847704700BFD8
:10448800540000200348D0F894300BB18C30184702
:10449800704700BF540000200248836F0BB1703092
:1044A80018477047540000200248C36D0BB15430C0
:1044B80018477047540000200248036C0BB138308D
:1044C80018477047540000200248436A0BB11C305B
:1044D80018477047540000200248836803B1184702
:1044E800704700BF540000200B4B984212D0A3F530
:1044F800806398420ED003F5804398420AD003F5B2
:104508008063984206D003F5806398420CBF01206F
:1045180002207047012070470004014008B5054B90
:104528001B6803B19847044B044A1A6072B6FEF739
:10453800A4F800BFAC380020FCFF0120EFBEADDEC0
:1045480008B5034B1B6803B1984772B6FEF795F898
:10455800AC3800200148FEF7A1B800BF6C0200206B
:104568000148FEF79BB800BFF00400200148FEF7A1
:1045780095B800BF740700202DE9F3479A46474BCA
:10458800914603EB80020546146B002C00F08380F3
:104598004833636004F16E03A36104F5B773E16007
:1045A800E361A16E226E4FF4807323616361236817
:1045B800E36504F1040809B1E2636163043322642A
:1045C800626EA2636365A36594F86D0012F021F929
:1045D800064694F86C0012F01CF9074694F8740229
:1045E80008B121F0E3FB94F8750208B121F0DEFB75
:1045F800D4F870321BB12A4A116B0B4313631AF0BB
:10460800080F27D00135EDB21EB10723B371F3713E
:1046180035721AF0100F94F8762214BF0221122175
:10462800304612F045F9E26B82B994F878328DF889
:104638000430D4F880328DF806209B098DF80530B7
:1046480001A801238DF8073021F01AFC404602B07A
:10465800BDE8F08719F0020F0DD06B1CDBB226B154
:104668000722B2710522F271337294F87622022180
:10467800304612F01DF919F0010FD4D00135EDB212
:1046880027B10723BB710623FB713D7294F876228C
:1046980002213846C5E7A046D8E700BF0CD2020879
:1046A8000038024010B512F0B4F8044628B11523BA
:1046B80083710223C371002303720121204612F083
:1046C80033F914B12368A2885A8310BD2DE9F04349
:1046D800664E4FEAC00806EB080985B0054699F80A
:1046E800040012F096F8074699F8050012F091F8C0
:1046F800044699F8060021F059FB6B1CDBB227B180
:104708000D22BA710922FA713B7224B10D22A271ED
:104718000A22E271237204223A21384612F0C8F8BC
:10472800204604223A2112F0C3F856F83540504B7F
:104738009C4268D103F5F2331A6A42F400121A62F5
:104748001A6A22F400121A62B04498F80720022A62
:1047580073D0032A73D0474B474F012A18BF1F460F
:10476800B4F8048028F03F0868464FEA084821F06A
:104778005EF84FEA1848029B4048B3FBF0F082B25B
:1047880048EA0208A4F80480218821F001010904FC
:10479800090C21803A498F4253D13A49B3FBF1F3CE
:1047A8009BB2042B38BF0423013292B22284A38324
:1047B800238856F8352034499BB243F001032380FF
:1047C800238823F4816323F002031B041B0C43F4A6
:1047D800806323804FF480432381138823F0800370
:1047E8001B041B0C138013889BB243F00103138036
:1047F80018236B43CA18CD540123537000239370B8
:1048080005B0BDE8F083214B9C4209D103F5F03394
:104818001A6A42F480021A621A6A22F4800292E743
:104828001B4B9C4290D103F5EE331A6A42F4000206
:104838001A621A6A22F4000285E7114F90E7114FB5
:104848008EE707EB4707B3FBF7F39BB2C3F30B0203
:104858000AB943F001034FF4967242434FF47A7158
:1048680043F4004392FBF1F29EE700BFD42E0020F0
:1048780000540040801A060000350C0040420F002A
:10488800A0860100400D0300A079002000580040D8
:10489800005C004013B50023019300933E4B1A6857
:1048A80042F480321A6019461A6802F40032009203
:1048B800019A01320192009A1AB9019AB2F5A04FF1
:1048C800F2D10B6813F4003318BF01230093009B47
:1048D800012B45D1304B31491A6C42F080521A6491
:1048E8000A6842F440420A609A689A609A6842F4F8
:1048F80000429A609A6842F4A0529A60284A5A6024
:104908001A6842F080721A601A689201FCD5254A2A
:1049180040F2057111609A6822F003029A609A6861
:1049280042F002029A601C4A936803F00C03082BB9
:10493800FAD193681C4903F00C03042B12D0082BFE
:1049480012D01A4B0B60144B9A68194BC2F303121E
:10495800134493F8A8270B68D3400B6002B010BD2E
:1049680000BFFDE7134BEDE75468506852686302D7
:10497800C2F3881200F03F004CBF0E4B0B4BB3FB49
:10498800F0F35343044A5268C2F301420132520021
:10499800B3FBF2F3D6E700BF0038024000700040D6
:1049A80008544007003C0240000000200024F400A6
:1049B8004C02002000127A0010B5104CD4F8883050
:1049C80043F47003C4F888300D4B1A68002142F094
:1049D80001021A6099601A6822F0847222F4803207
:1049E8001A60084A5A601A6822F480221A60D9604C
:1049F800FFF750FF4FF00063A36010BD00ED00E02B
:104A080000380240103000242DE9F04F2DED028BC4
:104A18009BB0CDE9020111F0CFF8C84B1B78059384
:104A2800002B41F0CC86C64F3B68580541F1C7863C
:104A3800C44C637A002B00F06C81C34EE368326883
:104A4800D31A7C2B40F26581237CDFF830A3E26027
:104A5800013323744FF024094FF47A78AAF1300512
:104A6800484614F075FC5AF8040FAB8A09F101099D
:104A780008FB00F05FFA89F990FBF3F000B214F03C
:104A880055FCB9F1270FEBD1B04D302014F060FC84
:104A980095ED450A27F0A4F800B214F047FC14F08D
:104AA8004FFC237C990733D1E26841F288339A425C
:104AB8001BD9D5ED427AFDEEE77A102017EE908AE1
:104AC8004FF0640914F044FC98FBF9F528B214F08F
:104AD8002DFC212014F03CFC09FB158383EAE370CC
:104AE800A0EBE37000B214F021FC142014F030FCA9
:104AF800974BB3F904000A2390FBF3F014F016FC6B
:104B08001C2014F025FC002014F010FC14F018FCF4
:104B1800237C5A0740F0D780022014F019FC8D4BF3
:104B2800D8696423323090FBF3F000B214F0FEFB36
:104B3800894B0320B3F9065014F00AFC874B1B6815
:104B48005B074FF0050895FBF8F5ADB240F11C8105
:104B580025F0F2FC20B93B6813F0100F18BF0025B0
:104B680028B214F0E3FB3B68980739D5DFF81082C8
:104B78007B4DB8F80020642353432A785200B3FBD6
:104B8800F2F3C3F3032747EA03239FB2062014F086
:104B9800DFFB38B214F0CAFB94F82030012B40F048
:104BA800F980392014F0D4FBB8F9000014F0BEFBEA
:104BB800282014F0CDFB6B4B18680A2390FBF3F008
:104BC80000B214F0B3FB042014F0C2FB664B9B89BF
:104BD800002B00F004811AF0A3FF00B214F0A6FB2A
:104BE800624B1B68190640F11381614FDFF894810D
:104BF8003B6813F0020F1FD0112014F0A9FBB8F87E
:104C080020005C4B4FF4F36510FB05F090FBF3F0CC
:104C180000B214F08BFB192014F09AFBB8F82000AE
:104C2800642210FB05F090FBF2F090FBF2F302FB1C
:104C3800130000B214F07AFB3868D8F8103010F07E
:104C4800020518BF64254FF0010018BF93FBF5F566
:104C580014F07EFB28B214F069FB092014F078FBED
:104C6800002014F063FBB8F8282098F80750B2F534
:104C7800967F09D9237C03F00F03072B04D842F24F
:104C88000F75954228BF1546052014F061FB28B220
:104C980014F04CFB00230A930B933B689A0704D447
:104CA80094F82830012B40F09F80012384F82830A5
:104CB800D8F808300A93D8F80C300B930AA81AF0E1
:104CC80079F814F03DFB237C282B22D1356800238A
:104CD8003C261720237414F03BFB4EF66020B5FBEE
:104CE800F0F3B3FBF6F006FB1030000200B214F04C
:104CF8001DFB182014F02CFB4FF47A70B5FBF0F56F
:104D0800B5FBF6F006FB105000B214F00FFB14F0E0
:104D180017FB94F82930002B00F09D80094E164DA2
:104D2800344696F82A30042B00F29580DFE813F019
:104D38007400800044025C028A0200BF8494002050
:104D480030730020104B002060B500202C97002005
:104D58008403001064740020C8700020D0770020FD
:104D68000028002050590020A27300202C73002036
:104D7800F0BF0020A0860100806967FF580400107A
:104D8800B4730020F4BF0020B74B9889B0FBF8F04B
:104D980000B2E6E6B8F800206E235343152293FBD1
:104DA800F2F394F821201AB19BB22A7893FBF2F31C
:104DB8003A209DB24FF0640814F0CAFAB5FBF8F730
:104DC80038B214F0B3FA3B2014F0C2FA08FB1750BB
:104DD80080B205300A2590FBF5F000B2E6E6A34B59
:104DE800186880F31000F8E6DFEDA16A94ED057A03
:104DF800D4ED067A27EE267A67EEA67ABDEEC77A54
:104E0800FDEEE77A8DED107ACDED117A10A856E710
:104E1800984B10931193F9E7E06A17F09EFBD0B115
:104E280000232363DDE90223012019F0B3FF78E7AB
:104E3800D4E90E23DDE90201801A61EB03010029A0
:104E480008BFB0F57A6F28D319F096FFDDE9022381
:104E5800002019F09FFF884C884B94F8AB20D3F8BA
:104E680000900493002A00F01A83D4F8AC30002B89
:104E780000F0158394F8B030013B012B00F20F834A
:104E88007F4E4FF001080027F7E17B1CE06A23639F
:104E980017F05DFB274487F84000E06A17F05DFBD8
:104EA80010B1276B012FF0DD236B012BD3DD94F8B4
:104EB800403013F07F0240F0798194F841308A2B1A
:104EC80006D08E2B00F0F680DDE902230020ACE747
:104ED8006C4B1B681B06F7D5DFF8D4E1DFED6A7A67
:104EE8009EF8073084F85C30684BDFED696A93ED13
:104EF800457A9FED686A77EE277AF4EE667AF1EEE6
:104F080010FA48BFF0EE667AFDEEE77A17EE903AAF
:104F1800F0EE087A27EE277A84F85930C7EE067A39
:104F28001B1284F85A309FED5C7A77EE877AF4EE9C
:104F3800667AF1EE10FA48BFF0EE667AFDEEE77A8F
:104F480017EE903A84F85B30544B1B689F070BD4DC
:104F58002D2384F85D30524B33672C2386F8743048
:104F6800DDE90223022060E79EF80630DEF80880BB
:104F7800404A98FBF2F7022B0CBF3323322305FB80
:104F880007814FF0060C84F85D30464BDEF80CA024
:104F98000CFB01F14FF0640991FBF3F003FB1011D6
:104FA80091FBF9F186F84E10091286F84F109AFB1A
:104FB800F2F105FB01A20CFB02FC01EB81019CFB59
:104FC800F3F201EB810103FB12C352B293FBF9F335
:104FD80086F853301B1202EB810286F85430BEF972
:104FE800203092B286F8512003EBC303120A86F8E8
:104FF80052209B004FF47A7293FBF2F386F8493003
:10500800C3F3072386F84A30274B1B8886F85530A8
:1050180007EB87071B0A07EB870740B200EB8700FF
:1050280086F85630DEF8103093FBF9F91F4B09F576
:10503800FA7980B21FFA89F94FEAD87886F84C00D5
:105048004FEADA7A000A86F857901B8886F84B8070
:105058004FEA192986F84D0086F850A086F858902E
:1050680086F85E3077E700BFA2730020B073002097
:105078008096184B80969800104B002060B5002051
:10508800040A00202C7300200060EA462C970020B8
:10509800000000000000C8420000F042F0BF0020FD
:1050A800524B002040420F0054590020565900200E
:1050B800F4BF0020C84BC9491B8884F8772084F8BE
:1050C8007920DAB21B0A84F8932084F8943084F8A3
:1050D800892084F88A300A68D4F8A43094F8220029
:1050E800D21A4FF47A7343439A420DD30B68C4F82B
:1050F800A43094F8A830013B012B9FBF102384F8FB
:105108007730022384F87930B54BDFEDB66A1A6838
:10511800B54B0A2192FBF1F284F89120121284F81F
:105128009220B24A1B6892ED427A93FBF1F3C7EEE4
:10513800267A84F895301B1284F896309FEDAC7A65
:1051480077EE877A92ED457AFDEEE77A17EE903A98
:10515800DFEDA87A77EE277A23EAE373FDEEE77AA4
:1051680084F88F301B1284F8903017EE903AF0EEE6
:10517800087A27EE277A23EAE373C7EE267A84F8BB
:1051880097301B1284F898309FED9B7A77EE877AD8
:10519800FDEEE77A17EE903A23EAE37384F8993044
:1051A800964B23672C2384F87430D9E67F2B3FF481
:1051B8008BAE19F0E1FD87E6D4E90E23DDE90201A3
:1051C800801A61EB03010B4600210246994241F225
:1051D800873008BF9042BFF43EAE002384F8A93060
:1051E8000320DDE9022334E6DDE90223002B08BFB2
:1051F800B2F5FA6FFFF42FAE94F8741094F8A92062
:1052080094F8AA3051B901331146E06A84F8AA30FB
:1052180011F0D4F9DDE9022304201AE6216FE06ACF
:10522800097801330A4484F8AA3084F8A92011F0D7
:10523800C5F9236F0133236794F87430013B84F870
:10524800743008E6D4E90E23DDE90201801A61EB27
:105258000301002908BFB0F5FA6FAAD2FBE5D4F81C
:10526800AC0017F074F9049A83B27E2B12681FD130
:1052780084F8B17084F8B2703770D4F8AC0017F0C5
:105288006CF901460028EAD194F8B730002B00F0F9
:105298008780637884F8B700302B40F08180A3784A
:1052A8005E09012E49D084F8B80019F0F9FA77E0C0
:1052B8003278002AE1D194F8B11089B91B2B07D1B3
:1052C800D4F8AC0017F049F940BB84F8B280D4E7B1
:1052D8000D2B23D184F8B1802370A4F8B410CCE747
:1052E8007D2B02D184F8B680C7E794F8B6E0BEF10A
:1052F800000F04D080F02000C3B284F8B6204A1C06
:10530800D2B2092A84F8B12063540AD1B4F8B4207F
:10531800C2F1FF02934201D184F8B78086F8008079
:10532800ABE7082AA9D8B4F8B400034403EB132365
:1053380003F0FF03A4F8B4309FE703F00F0013F065
:10534800100321D02E4BE7782279A4F8C420A4F8C2
:10535800C8107A40D919C4F8BC30C4F8C01084F811
:105368000C2184F8B860C73B94F80C21254F002124
:10537800D4F8BC60D4F8C050B5421AD131BBBB4296
:1053880046D184F80D010BE094F8B82042B194F8A6
:105398000D21013202F00F0282421AD084F8B8308F
:1053A800194E94F8B20094F8208294F82132002221
:1053B800EDE213F8011B06F1010EBB4282EA01027D
:1053C800C4F8BCE031704FF00101D1D384F80C214E
:1053D800D5E70E4BC8E700BFB473002060B50020C6
:1053E800505900200000C842B07300202C970020BC
:1053F8000000FA430060EA460000F042854B0020B6
:10540800DC4B0020184B00207CD20208134B0020F4
:105418001A7894F80C319A424FF0000284F8B820B8
:1054280003D0B4F9C41001203FE71548D4F8BC30C4
:10543800C4F8C030C4F8BC0000F5AA7300F15406E3
:1054480000F144011038C4F81061C4F81431A4F80C
:105458001821A4F81C210BF045FF013006D1D4F81F
:105468001021511CC4F8101102211170D4F8102118
:10547800C4F814210123C4F8106184F820328FE79E
:10548800DC4B002004990968A1EB0901012940F2CD
:10549800DE810AB184F82132002384F8B23094F80E
:1054A8002432002B00F0A681D4F82832002B00F01B
:1054B800A181049BD3F800A0D4F82C32AAEB0303F3
:1054C800632B40F29781D4F8302294F83432D65CBA
:1054D800F20724D510A819F099FA109BB54F5A1C59
:1054E800109241221A700A25B7F9021091FBF5F1C2
:1054F80010A889B212F0BCF8B7F9001091FBF5F1C9
:1055080010A889B212F0B4F8B7F9041091FBF5F1BC
:1055180010A889B212F0ACF810A819F059FAB3071C
:1055280047D510A819F072FAA34BDFF89C821D68C2
:1055380015F0800500F0008498F80630002B00F084
:10554800F783012B00F0F683022B0CBF03250025FF
:10555800D8F80810D8F80CB0B8F92090642399FB53
:10556800F3F9964B93ED428A109B1AAF5A1C47F8F1
:10557800282D47221A70384612F066F859463846E0
:1055880012F062F8109BBDEEC88A5A1C1092384679
:1055980083F8009018EE101A12F056F898F80730B1
:1055A80045EA8305109B5A1C109238461D7019F065
:1055B8000FFA370723D510A819F028FA109B804D49
:1055C8005A1C10924F221A70296810A812F03CF841
:1055D800696810A812F038F8A96810A812F034F811
:1055E800109B5A1C109201221A70764B1B681340AC
:1055F800109A511C109110A8137019F0E9F9B0060F
:105608002ED510A819F002FA1AF064F9109B5A1C4A
:10561800109258221A706C4B0546198D10A812F07A
:1056280027F8109B85F001005A1C10921870109BE7
:1056380094F83522591C10911A70644B1A78109BF3
:10564800591C10911A70109B5A1C109200221A7043
:1056580094F8353210A8013384F8353219F0B8F9C6
:1056680071076DD510A819F0D1F9594B1B68DA05E7
:1056780000F16683DF0400F16583D80600F16483D6
:10568800990600F163831A0700F1628313F0440F4F
:1056980040F06083DF0700F15F8313F0020F0CBF57
:1056A800012503254B4B1F684B4B1B79C7F380071C
:1056B8000BB147F00207109B5A1C109253221A7024
:1056C800464B198801EB810101EB8101890089B200
:1056D80010A811F0CDFF424B196881F3100189B26F
:1056E80010A811F0C5FF3F4B1A88FE23534340F220
:1056F800FF3293FBF2F3109A511C109113702E4B4A
:105708001B6813F020030ED0374BDFED386AD3ED5A
:10571800047AF8EEE77A87EEA67AFCEEC77ACDED42
:10572800067A9DF81830109A511C10911370109B2E
:1057380047EA85055A1C109210A81D7019F048F9FF
:10574800F60629D510A819F061F9109B5A1C109279
:105758004E221A70109A264B501C1978109011700E
:10576800109A5978501C10901170109A5979501C41
:1057780010901170109A1979501C10901170109A8D
:105788009978501C10901170DA78109B591C109160
:1057980010A81A7019F01CF994F83432C4F82CA225
:1057A80001330A2193FBF1F201FB123384F83432FE
:1057B80020E000BF840300102C7300202C970020E9
:1057C80068C40020F0BF0020F4BF002080C400207F
:1057D800D8700020D077002064C50020B473002062
:1057E800B07300204C590020947400200000C84277
:1057F8005859002094F836320693002B00F067863B
:10580800D4F83832002B00F06286B54DDFF80CA3CF
:10581800D4F8380216F0A1FE002800F08B83D4F8E3
:10582800380216F094FEEA78002306462B700A2AFE
:1058380000F2A282DFE812F0920292020003100343
:10584800090317031E032A033A0350035003B8F150
:10585800000F65D00AB184F82132D4F81031A14A7A
:10586800934294F8223239D1591C84F82212B4F99F
:105878001C1103F00F0343F010030029B8BF43F0D5
:1058880020038DF84030D4F814319B1A94F818216D
:105898008DF84130534084F823320DF14201D4F899
:1058A800147194F8230200230DF14605A94228D269
:1058B800D4F81021BE1A002E1ADC0BB184F823028A
:1058C80094F823220A704B1C0022AB4225D310A95E
:1058D800322018F0FBFF4FF000081BE05A1C03F0C1
:1058E8000F0384F822228DF840300DF14101D6E7EC
:1058F800531CC4F81031137801F8013B58400123B8
:10590800D4E70BB184F82302A942D9D110A93220D7
:1059180018F0DCFF84F82082BEE503F8012BD4E7F9
:105928000133DBB2122B28BF0023012236F8137093
:10593800B7F5E06F00F03E814FD8B7F5047F00F06F
:10594800A6801BD8B7F5887F00F01E81B7F5007FC9
:1059580000F0B280B7F5807F19D184F82132624B0C
:105968001B685F077FF51DAD604BD3ED427AFCEEF7
:10597800E77A4FF4807017EE901A69E0B7F5826FF6
:1059880000F067810CD8B7F5806F00F022810028FD
:105998007FF478AD002A3FF482AD84F821327EE5A9
:1059A800B7F5846F00F09281B7F5C06FEFD184F836
:1059B80021324F4B1B6818057FF5F3AC94F824305F
:1059C800002B00F088804B4B9B89002B00F08380D4
:1059D8001AF0A6F8014638463AE0B7F5026F00F02B
:1059E800868116D8B7F5E46F00F0EE80B7F5006F42
:1059F80000F09680B7F5E26FC9D13F4A84F82132AA
:105A0800916B64234B434FF4E260918A93FBF1F16D
:105A18001EE0B7F5046F00F0C4801CD8B7F5036F1B
:105A2800B5D184F82132304B1B6818067FF5B9AC24
:105A3800324B1B6899077FF5B4AC314B1B8C4FF484
:105A4800F3614FF4036013FB01F36421B3FBF1F13D
:105A580018F056FFA5E4B7F5116F00F05781B7F5B8
:105A6800206F94D184F821321F4B1B6898067FF56C
:105A780098AC244B9FED247AD3ED047AF8EEE77ABC
:105A880067EE877AFCEEE77A17EE901AA3E784F8B8
:105A98002132174B1B689A077FF583AC1B4B94F890
:105AA80021201B881AB11A4A117893FBF1F30A21B5
:105AB80059434FF40470CBE784F821320C4B1B6830
:105AC8001B057FF56EAC134B4FF4007019680A2361
